:020000040800F2
:1000000000000120CD170008B9060008CD06000841
:10001000DD060008ED060008FD06000800000000EF
:100020000000000000000000000000000D070008B4
:100030000F07000800000000110700081307000860
:1000400015180008151800081518000815180008DC
:1000500015180008151800081518000815180008CC
:1000600015180008151800081518000815180008BC
:1000700015180008151800081518000815180008AC
:10008000151800081518000815180008151800089C
:10009000151800081518000815180008151800088C
:1000A000151800081518000815180008151800087C
:1000B000151800081518000815180008151800086C
:1000C000151800081518000815180008151800085C
:1000D000151800081B0700081D0700081518000860
:1000E000151800081518000815180008151800083C
:1000F000151800081518000815180008151800082C
:10010000151800081518000815180008151800081B
:100110001518000815180008210700081518000810
:1001200015180008151800081518000815180008FB
:1001300000000000000000000000000000000000BF
:1001400000000000000000000000000000000000AF
:10015000000000000000000000000000000000009F
:10016000000000000000000000000000000000008F
:10017000000000000000000000000000000000007F
:10018000000000000000000000000000000000006F
:10019000000000000000000000000000000000005F
:1001A000000000000000000000000000000000004F
:1001B000000000000000000000000000000000003F
:1001C000000000000000000000000000000000002F
:1001D000000000000000000000000000000000001F
:0401E0005FF8E0F1F3
:1001E40010B5054C237833B9044B13B10448AFF36D
:1001F40000800123237010BD700000200000000067
:10020400D822000808B5034B1BB103490348AFF3D8
:10021400008008BD0000000074000020D8220008FF
:1002240008B500F021F900F0D7F8012008BD00005E
:10023400BFF34F8F0549CA6802F4E062044B1343CD
:10024400CB60BFF34F8F00BFFDE700BF00ED00E0C0
:100254000400FA0538B505464FF4FA6100F020F9B8
:1002640088B100242B7803332046A3420DDB0134EC
:10027400E4B201304FF4FA61284400F011F9002887
:10028400F0D1012000E0012038BD0023184604E02D
:10029400EA5C1044C0B20133DBB29C42F8D20028BD
:1002A400F2D00220F0E730B583B000F055FB0446ED
:1002B40000F052FB001BB0F57A7F12D2552000F0FB
:1002C4000BF964210DF1070000F0EAF80546002857
:1002D400EED09DF80730422BEAD1522000F0FCF812
:1002E40000E00025284603B030BD008880B2704786
:1002F4002DE9F0411F4BDA791F7A47EA02279B88E0
:1003040047EA03471C4B9F4212D20020BDE8F0810C
:1003140001F090F94CF2503001F008F9174A1369D2
:1003240023F002031361134A136803F50063136097
:10033400104B18689B793B449842E9D3104E002433
:100344000C4B9B79A34211D9E51932880023294625
:10035400012001F01FF9B6F800802846FFF7C5FF19
:10036400804505D102360234E4B2E9E70120CDE745
:100374000020CBE78C000020003000080020024061
:100384009600002008B50F4B1A680F4B1340B3F1C9
:10039400005F0ED10D4800F0ADF801F0BDF80C4837
:1003A40001F0D3F9074B5A681B6883F30888904718
:1003B40008BD084800F09EF8012383F31388FFF773
:1003C40037FF00BF003000080000FE2FF0220008B5
:1003D400940100200423000810B5FFF764FF08B15E
:1003E400002209E0FFF7CEFFFAE71B48FFF732FFD0
:1003F4001A4800F07FF82246531CDCB2012AF4D9D3
:10040400012418E0012383F31388FFF711FFFFF79A
:100414006FFF04461CE0114800F06CF8FFF7B2FFD0
:1004240016E00F4B997ADA7A42EA01229A800FE0B9
:100434000C4800F05FF80848FFF70CFF0028E1D1F2
:10044400074B5B7A012BE6D0042BEAD0002BDED0DD
:10045400002CEDD00148ECE7920000202023000896
:100464008C0000201C23000810B500F057FA00F09F
:100474004BF800F0A9F800F075F800F089F801F0E5
:1004840031F8054C4FF484720021204601F0E6F95E
:10049400024B236010BD00BF8C0000200030000818
:1004A40070B506460D4600F057FA044600F054FABB
:1004B400001BA8420AD2064B1B681B6813F0200FCE
:1004C400F4D0044B5B683370012000E0002070BD61
:1004D4009401002000380140044B5860044B1B6811
:1004E4001B6813F0800FF9D0704700BF003801403B
:1004F4009401002010B5044602E00134FFF7ECFF3C
:1005040020780028F9D110BD30B591B028220021FF
:1005140006A801F0A3F9002401940294039404941E
:100524000594092306934FF48033079301220A921A
:100534000C9202250D950E934FF4E0130F9306A829
:1005440000F026FA0F230193029503944FF480637D
:1005540004930593294601A800F060FC00F020FCF8
:1005640011B030BD08B50848084B03604FF4E133BF
:10057400436000238360C36003610C224261836192
:10058400C36101F0B3F808BD9401002000380140B4
:1005940010B50B4C0B4B23604FF4E1336360002325
:1005A400A360E36023610C226261A361E3612046DE
:1005B40001F09CF82268D36843F02003D36010BD97
:1005C400D8010020004400402DE9F04389B0002404
:1005D4000494059406940794324B9A6942F04002BD
:1005E4009A619A6902F040020092009A9A6942F074
:1005F40010029A619A6902F010020192019A9A69B2
:1006040042F004029A619A6902F004020292029A88
:100614009A6942F008029A619B6903F00803039304
:10062400039BDFF8848022462021404600F090FEA0
:100634001E4F22464FF49071384600F089FE1C2369
:1006440004930594069404A9404600F0D5FC4FF0A9
:100654002009CDF8109001260596022506950795E8
:1006640004A9404600F0C8FC04960594069404A925
:100674000F4800F0C1FCCDF810900596069507953B
:1006840004A9384600F0B8FC4FF48073049305962F
:100694000694079504A9384600F0AEFC09B0BDE8FD
:1006A400F08300BF0010024000180140000C01401C
:1006B4000008014008B5034801F046F900F08CFC3D
:1006C40008BD00BF2423000808B5024801F03CF926
:1006D400FEE700BF3423000808B5024801F034F9EE
:1006E400FEE700BF4823000808B5024801F02CF9D2
:1006F400FEE700BF5C23000808B5024801F024F9B6
:10070400FEE700BF5C23000870477047704708B5D8
:1007140000F016F908BD704770470000054B1B69CF
:1007240013F0010F04D0034A136923F0010313618A
:10073400704700BF0010004000B583B00F4B9A69AA
:1007440042F001029A619A6902F001020092009A51
:10075400DA6942F08052DA61DB6903F08053019375
:10076400019B052000F0FAFD054A536823F0E0637D
:1007740043F00073536003B05DF804FB00100240C3
:100784000000014030B589B000230493059306931B
:1007940007930368344A934204D0344A934233D0D3
:1007A40009B030BD324B9A6942F480429A619A6929
:1007B40002F480420092009A9A6942F004029A611B
:1007C4009B6903F004030193019B4FF400730493AA
:1007D4000223059303230793264D04A9284600F01A
:1007E4000BFC4FF48063049300240594069404A93D
:1007F400284600F001FC22462146252000F0C0FDD9
:10080400252000F0F5FDCBE7194BDA6942F40032FC
:10081400DA61DA6902F400320292029A9A6942F0C9
:1008240004029A619B6903F004030393039B04236A
:10083400049302230593032307930E4D04A928462A
:1008440000F0DAFB0823049300240594069404A919
:10085400284600F0D1FB22462146262000F090FDD8
:10086400262000F0C5FD9BE700380140004400400D
:10087400001002400008014008B50368114A934281
:1008840003D0114A93420FD008BD02F55842936930
:1008940023F4804393614FF4C0610C4800F0CCFC16
:1008A400252000F0B3FDEFE702F5E632D36923F427
:1008B4000033D3610C21054800F0BEFC262000F073
:1008C400A5FDE1E700380140004400400008014074
:1008D40010B504460E4B18784FF47A73B3FBF0F35B
:1008E4000C4A1068B0FBF3F000F0A2FD68B90F2CBD
:1008F40001D901200AE0002221464FF0FF3000F028
:100904003FFD054B1C60002000E0012010BD00BF2E
:1009140000000020080000200400002008B5074A59
:10092400136843F010031360032000F017FD002048
:10093400FFF7CEFFFFF700FF002008BD00200240B4
:10094400034A1168034B1B780B441360704700BFC4
:100954001C02002000000020014B1868704700BFF3
:100964001C02002082B0084B1B68084AA2FB032328
:100974005B0A00FB03F3019300BF019B5A1E019223
:10098400002BF9D102B0704708000020D34D62104B
:10099400002800F0F18170B582B00446036813F0BA
:1009A400010F2CD0994B5B6803F00C03042B1DD072
:1009B400964B5B6803F00C03082B12D06368B3F505
:1009C400803F41D0002B55D103F1804303F504331C
:1009D4001A6822F480321A601A6822F480221A609B
:1009E40037E08A4B5B6813F4803FE7D0874B1B6882
:1009F40013F4003F03D06368002B00F0BF81236829
:100A040013F0020F75D0814B5B6813F00C0F5FD0AD
:100A14007E4B5B6803F00C03082B54D02369002B36
:100A240000F08A807A4B01221A60FFF795FF054691
:100A3400764B1B6813F0020F75D1FFF78DFF401B37
:100A44000228F5D903209EE1704A136843F48033E9
:100A54001360636843B3FFF77FFF05466B4B1B6866
:100A640013F4003FCBD1FFF777FF401B6428F5D97F
:100A7400032088E1B3F5A02F09D0644B1A6822F44F
:100A840080321A601A6822F480221A60E1E703F1C6
:100A94008043A3F53C331A6842F480221A601A6832
:100AA40042F480321A60D4E7FFF756FF0546574BED
:100AB4001B6813F4003FA2D0FFF74EFF401B6428CD
:100AC400F5D903205FE1514B5B6813F4803FA5D156
:100AD4004E4B1B6813F0020F03D02369012B40F027
:100AE4004F814A4A136823F0F803616943EAC1035A
:100AF4001360236813F0080F33D0A369002B5CD074
:100B0400434B0122C3F88024FFF726FF05463F4BE1
:100B14005B6A13F0020F21D1FFF71EFF401B02286E
:100B2400F5D903202FE1394A136823F0F8036169EA
:100B340043EAC1031360DCE7354B00221A60FFF778
:100B44000BFF0546314B1B6813F0020FD1D0FFF7A2
:100B540003FF401B0228F5D9032014E10120FFF70D
:100B640001FF236813F0040F00F09680274BDB6924
:100B740013F0805F34D1254BDA6942F08052DA6198
:100B8400DB6903F080530193019B0125214B1B6812
:100B940013F4807F26D0E368012B3DD0002B53D182
:100BA40003F1804303F504331A6A22F001021A6246
:100BB4001A6A22F004021A6233E0154B0022C3F8C9
:100BC4008024FFF7C9FE0546104B5B6A13F0020F41
:100BD400C7D0FFF7C1FE401B0228F5D90320D2E09D
:100BE4000025D3E70B4A136843F480731360FFF7BF
:100BF400B3FE0646074B1B6813F4807FCBD1FFF787
:100C0400ABFE801B6428F5D90320BCE00010024031
:100C140000004242007000405F4A136A43F001033F
:100C24001362E36833B3FFF797FE06465A4B1B6A19
:100C340013F0020F2FD1FFF78FFE801B41F2883390
:100C44009842F3D903209EE0052B09D0524B1A6A2F
:100C540022F001021A621A6A22F004021A62E0E720
:100C64004D4B1A6A42F004021A621A6A42F00102F7
:100C74001A62D6E7FFF770FE0646474B1B6A13F06D
:100C8400020F08D0FFF768FE801B41F288339842B8
:100C9400F3D9032077E0E5B9E369002B72D03E4A2B
:100CA400526802F00C02082A56D0022B17D03B4B94
:100CB40000221A66FFF750FE0446374B1B6813F0F8
:100CC400007F47D0FFF748FE001B0228F5D9032018
:100CD40059E0314AD36923F08053D361DCE72F4BC9
:100CE40000221A66FFF738FE05462B4B1B6813F0EB
:100CF400007F06D0FFF730FE401B0228F5D9032001
:100D040041E0236AB3F5803F1AD023494B6823F4AA
:100D14007413226A606A024313434B601F4B01221F
:100D24001A66FFF719FE04461B4B1B6813F0007F7D
:100D34000ED1FFF711FE001B0228F5D9032022E093
:100D4400154A536823F40033A1680B435360DCE76E
:100D5400002018E0002016E0012B16D00E4B5B6833
:100D640003F48031226A914211D103F47013626A50
:100D740093420ED1002006E001207047012002E0DA
:100D8400012000E0002002B070BD0120FBE701203B
:100D9400F9E70120F7E700BF0010024000004242DB
:100DA400014B0122DA6470470000424286B0174BBF
:100DB4000FCB0DF1180C0CE90F0040F20123ADF834
:100DC4000430134B5B6803F00C02082A02D011486C
:100DD40006B07047C3F3834218326A4412F8100C09
:100DE40013F4803F0DD00A4B5B68C3F340431833C0
:100DF4006B4413F8143C074A02FB00F0B0FBF3F019
:100E0400E6E7054B03FB00F0E2E700BF70230008B0
:100E14000010024000127A0000093D00002800F092
:100E2400A08070B50D460446524B1B6803F00703BF
:100E34008B420BD24F4A136823F007030B43136012
:100E4400136803F007038B4240F08D80236813F08E
:100E5400020F17D013F0040F04D0474A536843F429
:100E6400E0635360236813F0080F04D0424A5368C8
:100E740043F460535360404A536823F0F003A1687D
:100E84000B435360236813F0010F31D06368012BC7
:100E940020D0022B25D0384A126812F0020F64D0F9
:100EA40035494A6822F0030213434B60FFF754FDAF
:100EB4000646314B5B6803F00C036268B3EB820FA8
:100EC40016D0FFF749FD801B41F288339842F0D9D0
:100ED400032045E0284A126812F4003FE0D10120C3
:100EE4003EE0254A126812F0007FD9D1012037E094
:100EF400204B1B6803F00703AB420AD91D4A136851
:100F040023F007032B431360136803F00703AB427A
:100F14002DD1236813F0040F06D0174A536823F425
:100F2400E063E1680B435360236813F0080F07D0B4
:100F3400114A536823F46053216943EAC10353609F
:100F4400FFF734FF0C4B5B68C3F303130B4AD35C0A
:100F5400D8400B4B18600B4B1868FFF7B9FC002006
:100F640070BD012070470120FAE70120F8E7012055
:100F7400F6E700BF0020024000100240842300086E
:100F84000800002004000020014B1868704700BFCF
:100F94000800002008B5FFF7F7FF044B5B68C3F3B4
:100FA4000223034AD35CD84008BD00BF00100240AE
:100FB4009423000808B5FFF7E7FF044B5B68C3F30D
:100FC400C223034AD35CD84008BD00BF00100240CE
:100FD400942300087047000008B5064B9B6813F083
:100FE400800F00D108BDFFF7F5FF024B80229A72F3
:100FF400F8E700BF0010024070B582B00024A44698
:10100400B0E0874DAA4210D007D9864DAA420CD031
:1010140005F58035AA4208D013E0A5F58015AA424B
:1010240003D005F57025AA4207D18A68002A62D048
:10103400012A5BD04361082403E0A5F58015AA4288
:10104400F3D0BEF1FF0F58D80646BEF1FF0F56D8B5
:101054004FEA8C0233680F25954023EA050304FA0E
:1010640002F2134333604B6813F0805F78D06E4B09
:101074009A6942F001029A619B6903F001030193AA
:10108400019B4FEA9C02951C684B53F825600CF0B9
:1010940003039D000F23AB4026EA0306644B9842EA
:1010A40033D003F58063984200F0988003F58063A1
:1010B400984200F0958003F58063984200F0928096
:1010C40003F58063984200F08F8003F580639842B3
:1010D40019D006231AE0CC68B3E7CC680434B0E72F
:1010E400CC680834ADE7CC680C34AAE70361082463
:1010F400A7E70024A5E70424A3E7061DA5E7ACF1B0
:1011040008029200A6E7052300E00023AB40334326
:101114000232464D45F822304B6813F4803F65D0C7
:10112400444A136843EA0E0313604B6813F4003F08
:1011340062D0404A536843EA0E0353604B6813F489
:10114400801F5FD03B4A936843EA0E0393604B6869
:1011540013F4001F5CD0374AD36843EA0E03D3600C
:101164000CF1010C0A6832FA0CF357D0012303FA8C
:101174000CF302EA030E33EA0202F1D14A68122A9E
:101184003FF63FAF122A3FF65CAF01A555F822F0B7
:101194002F100008DB100008E5100008F710000805
:1011A40047100008471000084710000847100008BF
:1011B40047100008471000084710000847100008AF
:1011C400471000084710000847100008471000089F
:1011D40047100008DF100008EB100008012395E712
:1011E400022393E7032391E704238FE7114A13684B
:1011F40023EA0E03136098E70E4A536823EA0E03AA
:1012040053609BE70B4A936823EA0E0393609EE7BF
:10121400084AD36823EA0E03D360A1E702B070BD85
:1012240000002210000031100010024000000140B4
:101234000008014000040140002279E0052500E097
:10124400002505FA04F464454ED0FF2B67D8064602
:10125400FF2B66D8950034684FF00F0E0EFA05FE8A
:1012640024EA0E044FF0040C0CFA05FC44EA0C04C6
:101274003460C46824EA0303C360013231FA02F320
:1012840054D0012393400B40F7D04FEA920E0EF155
:1012940002052C4C54F8255002F00304A4000F2638
:1012A400A64006EA050C284DA842C9D005F580657C
:1012B400A84211D005F58065A8420FD005F58065D8
:1012C400A8420DD005F58065A8420BD005F58065D0
:1012D400A842B3D00625B4E70125B2E70225B0E75A
:1012E4000325AEE70425ACE7164F0EF1020457F8C8
:1012F400245025EA060647F82460144C256825EA9C
:1013040003052560656825EA03056560A56825EA87
:101314000305A560E56825EA0305E56095E7061D74
:1013240096E7A2F1080C4FEA8C0594E7F0BD013270
:1013340031FA02F305D0012393400B40F7D0F0B506
:10134400A3E7704700000140000801400004014089
:101354000AB101617047090401617047074AD36803
:1013640023F4E0631B041B0C000200F4E06003435D
:1013740043F0BF6343F40033D360704700ED00E0F3
:1013840000B5194BDB68C3F30223C3F1070CBCF1AE
:10139400040F28BF4FF0040C03F1040EBEF1060F36
:1013A40018D9033B4FF0FF3E0EFA0CFC21EA0C0166
:1013B40099400EFA03F322EA0303194300280BDBD6
:1013C4000901C9B200F1604000F5614080F80013E2
:1013D4005DF804FB0023E5E700F00F000901C9B242
:1013E400024B1954F4E700BF00ED00E014ED00E0F7
:1013F400002807DB00F01F02400901239340024A42
:1014040042F82030704700BF00E100E000280CDB08
:1014140000F01F024009012393402030034A42F8A0
:101424002030BFF34F8FBFF36F8F704700E100E0B0
:101434000138B0F1807F0BD24FF0E0235861054AA8
:10144400F02182F823100020986107221A61704766
:101454000120704700ED00E0044B0022DA61044AE9
:10146400136943F0010313610180704720020020D7
:1014740000200240194BDB6813F0100305D0184A12
:10148400D36943F00203D3611023144AD26812F0E3
:10149400040F06D01249CA6942F00102CA6143F03E
:1014A40004030E4AD26912F0010F09D00C49CA692B
:1014B40042F00402CA610949CA6922F00102CA6100
:1014C40040F20112934202D0044AD3607047034AA7
:1014D400D36923F00103D361704700BF00200240A9
:1014E400200200200A4B1B6913F0800F0BD0084B1D
:1014F400084A5A6002F188325A601B6913F0800F5F
:1015040003D100207047002070470120704700BFBE
:101514000020024023016745034A136943F0800316
:1015240013610020704700BF0020024038B5044614
:10153400FFF712FA0546164BDB6813F0010F0AD0C9
:10154400B4F1FF3FF7D024B1FFF706FA401BA042E5
:10155400F1D903201BE00E4BDB6813F0200F02D0FF
:101564000B4B2022DA600A4BDB6813F0100F0BD10F
:10157400074BDB6913F0010F06D1054BDB6813F051
:10158400040F01D1002002E0FFF774FF012038BDF1
:10159400002002402DE9F8431E46244B1B7E012BFC
:1015A40041D004460F469046204B01221A764CF255
:1015B4005030FFF7BBFF034678BB012C08D0022C48
:1015C40003D04FF004091C4607E04FF00209FAE784
:1015D4004FF00109F7E70134E4B24C451DD2210173
:1015E400C1F12002A1F1200328FA01F106FA02F266
:1015F400114326FA03F3194389B207EB4400FFF7BA
:101604002BFF4CF25030FFF791FF094B1D6925F079
:1016140001051D6103460028DDD0044A002111762E
:101624001846BDE8F8830223FAE700BF2002002031
:1016340000200240064B0022DA61064B1A6942F090
:1016440002021A6158611A6942F040021A61704735
:10165400200200200020024010B5044602681369ED
:1016640023F44053C1680B43136183680269134335
:1016740042691A430168CB6823F4B05323F00C0386
:101684001343CB600268536923F4407381690B43AD
:1016940053610268134B9A4220D0FFF77BFC024649
:1016A40002EB820202EB820263689B00B2FBF3F25C
:1016B4000D48A0FB02314909642303FB11231B01DC
:1016C4003233A0FB03235B0903F0F00202EB0112A7
:1016D40003F00F03216813448B6010BDFFF76AFC0D
:1016E4000246DDE7003801401F85EB5158B310B5C1
:1016F400044690F83D300BB3242384F83D3022682F
:10170400D36823F40053D3602046FFF7A5FF226873
:10171400136923F4904313612268536923F02A0365
:1017240053612268D36843F40053D36000202064DB
:10173400202384F83D3084F83E3010BD80F83C30DE
:10174400FFF720F8D8E701207047A8B110B5044688
:10175400242380F83D300268D36823F40053D36017
:10176400FFF78AF80020206484F83D0084F83E00E6
:10177400206384F83C0010BD012070470F4B1A68A9
:1017840042F001021A6059680D4A0A405A601A6808
:1017940022F0847222F480321A601A6822F48022C1
:1017A4001A605A6822F4FE025A604FF41F029A60CB
:1017B400044B4FF000629A60704700BF0010024073
:1017C4000000FFF800ED00E00C480D490D4A00232D
:1017D40002E0D458C4500433C4188C42F9D30A4AE2
:1017E4000A4C002301E013600432A242FBD3FFF74A
:1017F400C5FF00F00FF8FEF713FD7047000000204E
:10180400700000200824000870000020540200200A
:10181400FEE7000070B500260C4D0D4C641BA410AF
:10182400A64209D100F056FD00260A4D0A4C641B5D
:10183400A410A64205D170BD55F8043B9847013663
:10184400EEE755F8043B98470136F2E70024000818
:10185400002400080024000804240008034602446D
:10186400934200D1704703F8011BF9E770B50E46A7
:10187400054618B183690BB900F044FAAB69AC684A
:1018840013B9284600F03EFA2C4B9C4220D16C68D8
:10189400636EDB0705D4A389980502D4A06D00F01C
:1018A400CFFAA38919071DD52369DBB1013EA368CB
:1018B40016F8011F013BA36039BB002B38DA22461E
:1018C4000A21284600F048F8013011D00A2511E019
:1018D4001B4B9C4201D1AC68DAE71A4B9C4208BF0F
:1018E400EC68D5E72146284600F088F80028DDD0CA
:1018F4004FF0FF35636EDA0705D4A3899B0502D444
:10190400A06D00F09EFA284670BD002B04DAA2698F
:101914009A4206DC0A2904D023685A1C22601970F2
:10192400C5E72246284600F017F80130BFD1DFE7AB
:101934000A2523685A1C22601D70DBE7C0230008B7
:10194400E0230008A0230008024B01461868FFF7B3
:101954008DBF00BF0C000020F8B50E4614460546A6
:1019640018B183690BB900F0CDF9214B9C422BD1FE
:101974006C68A369A360A3891A072FD523696BB385
:1019840023692068F6B2C01A63693746834204DCCF
:101994002146284600F022F930BBA3680130013B00
:1019A400A36023685A1C22601E706369834204D0BA
:1019B400A389DB0706D50A2E04D12146284600F068
:1019C4000DF988B93846F8BD0A4B9C4201D1AC6880
:1019D400CFE7094B9C4208BFEC68CAE7214628467A
:1019E40000F00CF80028CBD04FF0FF37EAE700BF37
:1019F400C0230008E0230008A0230008324B70B580
:101A04001D6806460C4625B1AB6913B9284600F09B
:101A140079F92E4B9C420FD16C68A389B4F90C2040
:101A240019072CD4DD0611D40923336042F0400396
:101A34004FF0FF30A3813EE0254B9C4201D1AC68BE
:101A4400EBE7244B9C4208BFEC68E6E7580712D545
:101A5400616B41B104F14403994202D0304600F075
:101A640057FA00236363A38923F02403A38100238B
:101A7400636023692360A38943F00803A381236976
:101A84004BB9A38903F42073B3F5007F03D0214637
:101A9400304600F0FDF9A089B4F90C2010F00103E0
:101AA4000AD00023A36063695B42A361236943B93D
:101AB40010F08000BAD170BD810758BF6369A3607C
:101AC400F4E70020F7E700BF0C000020C023000863
:101AD400E0230008A02300088A89F8B5054610070A
:101AE4000C4657D44B68002B04DC0B6C002B01DC38
:101AF4000020F8BDE66A002EFAD0002312F48052CA
:101B04002F682B6032D0606DA3895A0705D56368AE
:101B1400C01A636B0BB1236CC01A00230246E66A39
:101B24002846216AB047431CA38906D129681D2988
:101B34002CD8294ACA40D60728D5002262602269D7
:101B4400D904226004D5421C01D12B6803B9606515
:101B5400616B2F600029CBD004F14403994202D079
:101B6400284600F0D5F900206063C2E7216A01230A
:101B74002846B047411CC7D12B68002BC4D01D2B6D
:101B840001D0162B01D12F60B2E7A38943F04003A3
:101B9400A381AEE70F69002FAAD0930718BF0023D3
:101BA4000E6808BF4B69F61B0F608B60002E9FDD2B
:101BB40033463A462846216AD4F828C0E04700282C
:101BC40006DCA3894FF0FF3043F04003A38190E784
:101BD4000744361AEAE700BF0100402038B50B6914
:101BE40005460C4613B90025284638BD18B183694B
:101BF4000BB900F087F8144B9C421BD16C68B4F904
:101C04000C30002BEFD0626ED00704D4990502D4B7
:101C1400A06D00F015F928462146FFF75DFF636EBD
:101C24000546DA07E0D4A3899B05DDD4A06D00F056
:101C340008F9D9E7054B9C4201D1AC68DFE7044BB6
:101C44009C4208BFEC68DAE7C0230008E0230008E0
:101C5400A0230008002310B50446C0E90033C0E9FE
:101C64000433836081814366C281836119460822FB
:101C74005C30FFF7F3FD054B24626362044BA362FF
:101C8400044BE362044B236310BD00BFED20000846
:101C94000F210008472100086B210008014900F0CA
:101CA400AFB800BFE11B0008682270B54D1E554354
:101CB4000E4605F1740100F093F9044640B1002189
:101CC400C0E900160C30A06005F16802FFF7C6FDFC
:101CD400204670BD014800F0B3B800BF41020020A7
:101CE400014800F0AEB800BF41020020014800F0F6
:101CF400A7B800BF42020020014800F0A2B800BF0C
:101D04004202002010B50446FFF7F0FFA3691BB19F
:101D1400BDE81040FFF7F0BFC4E912332365134B4D
:101D2400134A1B68A262A34208BF0123204608BFCE
:101D3400A36100F01FF86060204600F01BF8A0606B
:101D4400204600F017F800220421E0606068FFF7E5
:101D540081FF01220921A068FFF77CFF02221221E2
:101D6400E068FFF777FF0123A361D1E79C23000814
:101D7400A11C0008F8B50746FFF7ACFF1E4B1E6810
:101D8400B36913B93046FFF7BDFF4836D6E90134CD
:101D9400013B03D533680BB33668F7E7B4F90C504D
:101DA400D5B9164B04F15800E360656600F047F8B6
:101DB400FFF796FF08222946C4E90155C4E90455F2
:101DC4002560A56104F15C00FFF748FDC4E90D55E9
:101DD400C4E912552046F8BD6834D9E704213846D1
:101DE400FFF762FF044630600028D5D1FFF778FF83
:101DF4000C233B60EEE700BF9C2300080100FFFFBB
:101E04002DE9F84306468846002700F14804D4E942
:101E14000195B9F1010905D52468002CF7D138469C
:101E2400BDE8F883AB89012B07D9B5F90E3001332E
:101E340003D029463046C04707436835E9E7704771
:101E44007047704770B50E46B1F90E10144600295C
:101E54001D4696B008DA0022B6F90C302A601A063C
:101E640010D44FF480630EE06A4600F0A3F9002812
:101E7400F1DB019A02F47042A2F500535A425A412E
:101E84002A60EEE740230020236016B070BD0000F6
:101E94008B8973B59D0706460C4607D504F14703A5
:101EA400236023610123636102B070BD6A4601AB04
:101EB400FFF7C8FF00990546304600F091F848B98D
:101EC400B4F90C309A05EFD423F0030343F0020372
:101ED400A381E3E70D4BB362A389206043F0800341
:101EE400A381009B20616361019B5BB13046B4F91F
:101EF4000E1000F071F928B1A38923F0030343F015
:101F04000103A381A0890543A581CDE7A11C000895
:101F140038B50546002940D051F8043C0C1F002B6D
:101F2400B8BFE41800F07AF91C4A136833B9636047
:101F340014602846BDE8384000F076B9A34208D9B9
:101F4400206821188B4201BF19685B680918216059
:101F5400EDE71A465B680BB1A342FAD91168501831
:101F6400A0420BD120680144501883421160E0D193
:101F740018685B68014411605360DAE702D90C23E6
:101F84002B60D6E7206821188B4201BF19685B6873
:101F94000918216063605460CBE738BD4402002017
:101FA40070B50E4E0C463168054611B900F08CF838
:101FB40030602146284600F087F8431C0AD0C41C30
:101FC40024F00304A04207D0211A284600F07CF82C
:101FD400013001D14FF0FF34204670BD480200208B
:101FE4002DE9F041CD1C25F0030508350C2D38BF33
:101FF4000C25002D074601DBA94205D90C23002638
:102004003B603046BDE8F0812E4E00F007F933689E
:102014001C4634BB29463846FFF7C2FF431C04461E
:102024004DD134682646002E40D1236831463846C7
:1020340004EB030800F048F880453AD121680335E1
:102044006D1A25F0030508350C2D38BF0C253846CC
:102054002946FFF7A5FF01302BD023682B442360CA
:102064000EE02268521B1ED40B2A16D96119A34212
:10207400256018BF5960636808BF316062514B60C6
:10208400384604F10B0600F0CFF826F00706231DAE
:10209400F21AB6D09B1BA350B3E76268A3420CBFED
:1020A40032605A60ECE723466468B2E734467668E7
:1020B400B9E70C2338463B6000F0B6F8A1E7256089
:1020C400DEE700BF4402002038B50023054D044676
:1020D40008462B6000F0E8F8431C02D12B6803B1DA
:1020E400236038BD4C02002010B50C46B1F90E1027
:1020F40000F0A0F80028ABBF636DA3891B1823F47C
:102104008053ACBF6365A38110BD2DE9F0411F4628
:102114008B890546DB050C46164605D502230022AD
:10212400B1F90E1000F068F8A389324623F4805305
:10213400A38128463B46B4F90E10BDE8F04100F0F7
:1021440017B810B50C46B1F90E1000F055F8431C41
:10215400A38915BF606523F4805343F48053A3819E
:1021640018BFA38110BDB1F90E1000F013B8000020
:1021740038B50446084611460022054D2A601A4621
:1021840000F0A0F8431C02D12B6803B1236038BDD2
:102194004C02002038B50023054D044608462B6048
:1021A40000F05AF8431C02D12B6803B1236038BDF8
:1021B4004C02002038B50023064D0446084611465B
:1021C4002B6000F051F8431C02D12B6803B123604B
:1021D40038BD00BF4C02002038B50023054D04462D
:1021E40008462B6000F048F8431C02D12B6803B169
:1021F400236038BD4C02002038B504460846114619
:102204000022054D2A601A4600F03EF8431C02D114
:102214002B6803B1236038BD4C0200200148FFF74E
:102224000FBE00BF400200200148FFF70ABE00BFF6
:102234004002002038B50446084611460022054DE8
:102244002A601A4600F028F8431C02D12B6803B117
:10225400236038BD4C0200205822024B4FF0FF305F
:102264001A6070474C0200205822024B4FF0FF3096
:102274001A6070474C0200205822024B00201A605A
:10228400704700BF4C0200205822024B4FF0FF3031
:102294001A6070474C0200205822024B4FF0FF3066
:1022A4001A6070474C020020044A05491368002B49
:1022B40008BF0B46184410601846704750020020AF
:1022C400580200205822024B4FF0FF301A6070472A
:1022D4004C020020F8B500BFF8BC08BC9E4670470D
:0C22E400F8B500BFF8BC08BC9E4670476F
:1022F0006A756D7020746F206170702E2E2E0D0A1D
:102300000000000061707020697320656D70747941
:10231000207265626F6F7421200D0A00460A00006A
:10232000530A00004E4D495F48616E646C65720D42
:1023300000000000486172644661756C745F48611A
:102340006E646C65720D00004D656D4D616E616768
:10235000655F48616E646C65720D0000557361675E
:10236000654661756C745F48616E646C65720D00E2
:1023700002030405060708090A0B0C0D0E0F1010C6
:102380000000000000000000000000000102030443
:1023900006070809000000000102030410000020E5
:1023A000000000000000000000000000000000002D
:1023B000000000000000000000000000000000001D
:1023C000000000000000000000000000000000000D
:1023D00000000000000000000000000000000000FD
:1023E00000000000000000000000000000000000ED
:1023F00000000000000000000000000000000000DD
:0424000009020008C5
:04240400E5010008E6
:10240800010000001000000000A24A041000002093
:1024180000000000C0230008E0230008A0230008F3
:1024280000000000000000000000000000000000A4
:102438000000000000000000000000000000000094
:102448000000000000000000000000000000000084
:102458000000000000000000000000000000000074
:102468000000000000000000000000000000000064
:04000005080017CD0B
:00000001FF
