:020000040800F2
:103000001011002045310008C54E0008554C00083D
:10301000C14E00082D370008BD5A0008000000000E
:10302000000000000000000000000000E15800085F
:103030003137000800000000014F00083559000832
:103040005F3100085F3100085F3100085F31000820
:103050005F3100085F3100085F3100085F31000810
:103060005F3100085F3100085F3100085F31000800
:103070005F3100085F3100085F3100085F310008F0
:103080005F3100085F3100085F3100085F310008E0
:103090005F3100085F3100085F3100085F310008D0
:1030A0005F3100085F3100085F3100085F310008C0
:1030B0005F3100085F3100085F3100085F310008B0
:1030C0005F3100085F3100085F3100085F310008A0
:1030D0005F3100085F310008695A00085F3100085D
:1030E0005F3100085F3100085F3100085F31000880
:1030F0005F3100085F3100085F3100085F31000870
:103100005F3100085F3100085F3100085F3100085F
:103110005F3100085F3100085F3100085F3100084F
:103120005F3100085F3100085F3100085F3100083F
:10313000DFF80CD000F05AFA00480047255C000880
:10314000101100200648804706480047FEE7FEE7CA
:10315000FEE7FEE7FEE7FEE7FEE7FEE7FEE7FEE747
:10316000C55900083131000840EA01039B0703D02C
:1031700009E008C9121F08C0042AFAD203E011F8B6
:10318000013B00F8013B521EF9D27047D2B201E078
:1031900000F8012B491EFBD270470022F6E710B55C
:1031A00013460A4604461946FFF7F0FF204610BDB5
:1031B000421C10F8011B0029FBD1801A704710B582
:1031C000002200E0521C835C8C5CA34201D1002BE6
:1031D000F8D1D8B2E1B2401A10BD034611F8012B64
:1031E00000F8012B002AF9D11846704730B50B467C
:1031F000014600202022012409E021FA02F59D4227
:1032000005D303FA02F5491B04FA02F52844151EFA
:10321000A2F10102F1DC30BD2DE9F05F054600208E
:1032200092469B4688460646814640241BE0284637
:1032300041464746224600F0FAF953465A46C01A1C
:10324000914110D311461846224600F0E1F92D1A9B
:1032500067EB01084F4622460120002100F0D8F913
:1032600017EB00094E41201EA4F10104DFDC4846A3
:1032700031462A464346BDE8F09F2DE9FE4F804681
:1032800081EA0300C00F0C46009021F0004123F0BA
:103290000045B8EB0200A94105D2404621469046C0
:1032A0001C460B46024623F00040104347D0270D32
:1032B000C7F30A00C3F30A510290401A0190402854
:1032C0006BDAC3F3130040F4801B0098924620B1E0
:1032D0000023D2EB030A63EB0B0B01985946C0F1B4
:1032E0004002504600F094F906460D4650465946B5
:1032F000019A00F0ACF910EB08006141002487EA64
:10330000115284EAE7731A4340D0009A62B3019ADB
:10331000012A4FEA075215DC001B61EB02014FF056
:10332000004202EA0752CDE90042001C41F580113B
:1033300032462B4600F0ACF903B0BDE8F08F4046B2
:103340002146F9E7001B61EB0201001C41F58013E7
:1033500000185B412018A2F5001747EB030140EA73
:10336000D570B6196D4111E06D084FEA360645EA91
:10337000C0754FEA0752001B61EB0201001C41F5CA
:10338000801149084FEA30000019514132462B465E
:1033900003B0BDE8F04F00F06CB900980122400086
:1033A0000023D0EB020263EBE073009821464FEA62
:1033B000E074B8EB000061EB0401E9E783F000433F
:1033C0005BE781F0004158E72DE9FE4F81EA0304F5
:1033D00004F0004421F0004100944FF0000B23F072
:1033E000004350EA01045ED052EA03045BD0C3F309
:1033F0000A54C1F30A552C44A4F2F3340194A0FBFF
:103400000254C1F3130141F48011C3F3130343F4D5
:10341000801301FB024400FB034E840A970A44EA2E
:10342000815447EA8357A4FB076802958D0A05FB80
:1034300007854FEA932C04FB0C542705029D4FEAA5
:10344000065847EA1637B5EB08056EEB070C870EF2
:10345000920E47EA811742EA8312A7FB0201B6EBFC
:103460000B0164EB00042B0D43EA0C335E1844EBB4
:103470001C50DA465146E7FB0201C5F313044FEA3C
:103480000B3343EA14534FEA0432019C43EA060328
:10349000A4F10C040294009CCDE900B400F0F8F80B
:1034A00003B0BDE8F08F00200146F9E72DE9F04DAB
:1034B00081EA030404F0004B21F0004514464FF06C
:1034C000000A23F0004150EA050220D054EA01022C
:1034D0001DD0C5F30A570246C5F31303C1F3130009
:1034E000C1F30A5640F4801543F48013A7EB060895
:1034F000101BD64608F2FD3873EB050002D308F125
:10350000010801E092185B41B8F1000F03DA0020D6
:103510000146BDE8F08D00204FF480110646844638
:103520000EE0171B73EB050705D3121B63EB0503B6
:1035300006434CEA010C49084FEA300092185B41FF
:1035400050EA0107EDD152EA030012D082EA0400EA
:1035500083EA0501084305D0101BAB4106D20122C6
:10356000002306E000224FF0004302E06FF001026A
:1035700053101AEB06004CEB085110EB0A0041EB1C
:103580000B01BDE8F04D00F074B8C1F30A52C1F36D
:10359000130140F2FF3341F480119A4202DA002015
:1035A0000146704740F233439A42A2F2334202DCB2
:1035B000524200F03CB800F02BB8000030B5041EB9
:1035C00071F1000404DB4FF00044404264EB010160
:1035D000141E73F1000405DB1C464FF000435242F9
:1035E00063EB0403994208BF904230BD064C074D7F
:1035F00006E0E06840F0010394E8070098471034C3
:10360000AC42F6D3FFF798FD3C7100085C710008EE
:10361000202A04DB203A00FA02F100207047914092
:10362000C2F1200320FA03F3194390407047202A87
:1036300004DB203A21FA02F00021704721FA02F35C
:10364000D040C2F120029140084319467047202A19
:1036500006DBCB17203A41FA02F043EAE07306E0BA
:1036600041FA02F3D040C2F12002914008431946CA
:10367000704710B5141E73F1000408DA401C41F1C4
:10368000000192185B411A4301D120F0010010BDE6
:103690002DE9F04D92469B4611B1B1FA81F202E05C
:1036A000B0FA80F220329046FFF7B2FF04460F4690
:1036B00040EA0A0041EA0B0153465A46084313D038
:1036C000114653EA010019D0C8F140025046FFF7F5
:1036D000AEFF05460E46504659464246FFF798FF54
:1036E000084305D0012004E020463946BDE8F08DAE
:1036F0000020054346EAE0762C4337430A986305E9
:10370000E40AA0EB08000022FD0A44EA47540A300C
:1037100002D500200146E9E7010510196941DDE9FC
:10372000084500196941BDE8F04DA2E7FEE7000039
:1037300070470000B0B5044600F012F9054640F2AB
:103740000C00C2F200000078611C18BF044400BFE6
:1037500000F006F9401BA042FAD3B0BD2DE9F04FAE
:1037600083B00C68002C00F0EA80A0F18042A2F542
:10377000843240F2004E4FEAB22241F60047C4F2D2
:10378000010E0092C4F20107062200254FF0010944
:103790004FF0000B4FF0000AB84208BF052201921B
:1037A00009E000BF0C680BF1010B34FA0BF205F1D4
:1037B000040500F0C48009FA0BF814EA080CF1D0F3
:1037C0004C684FF6FF72C1F21002944210DC122CCA
:1037D00050D8DFE804F0330A41454F4F4F4F4F4F69
:1037E0004F4F4F4F4F4F4F484C00D1F80CA041E086
:1037F0004FF6FF72C1F2210294420FDC0022C1F2A7
:10380000110294421AD00022C1F21202944215D041
:103810000022C1F22102944210D02BE00022C1F21A
:10382000220294420AD00022C1F23102944205D011
:103830000022C1F2320294421CD100BF8C6844B114
:10384000012C14BFC0F81480C0F810804FF0080A93
:1038500010E04FF0040A0DE0CC6804F1080A09E01A
:103860004FF0000A06E0CC6804F1040A02E0CC68DC
:1038700004F10C0A2C460746BCF5807F24BF203C8F
:1038800004373A680F2303FA04F6B2430AFA04F441
:1038900022433A60CA79D2067FF584AF41F2180418
:1038A000C4F2020422684FF6084842F00102226086
:1038B0002268CFF6FF7802F001020292029A2BF002
:1038C0000302724452F8084005F00C0603FA06F7AA
:1038D000009BBC43019F052B38BF1F4607FA06F625
:1038E000344342F808404C68E203DEF8002054BF3D
:1038F00022EA0C0742EA0C07A203CEF80070DEF8B9
:10390000042054BF22EA0C0742EA0C07E202CEF878
:103910000470DEF8082054BF22EA0C0742EA0C07C4
:10392000A20240F20C44CEF80870C4F201042268EE
:1039300054BF22EA0C0242EA0C02226032E703B0D2
:10394000BDE8F08FC26802EA0103914341EA0341F6
:1039500001617047002A08BF090401617047000037
:1039600040F6C000C2F200000068704770B5B0B306
:10397000044690F83D0028B9002084F83C00204619
:1039800000F0BCF8242084F83D002068016821F094
:1039900001010160016841F400410160016821F406
:1039A0000041016000F0FCFB48F28041C0F21E01C2
:1039B00040F60012666888424FF00001C0F23D02F6
:1039C00048F2A16C4FF0000338BF01219042C0F2D1
:1039D000010C38BF0123664538BF0B460BB10120EF
:1039E00070BD4DF68361C4F21B31A0FB011221684A
:1039F000930C4D68664525F03F0545EA92424A60C2
:103A00000A6A22F03F0C09D34FF496725A4344F6E7
:103A1000D353C1F26203A2FB03239B095A1C42EA5F
:103A20000C020A6248F2A063CA69C0F201039E4216
:103A30004CF6FF7322EA030C0AD801387200B0FB7F
:103A4000F2F001306FF31F30042898BF04202BE000
:103A5000A368A0F1010E9BB119207043BEFBF0F0EA
:103A60000422013062F31F30000512D09BB11920EF
:103A70007043BEFBF0F00422013062F31F3011E00E
:103A800006EB4600BEFBF0F001306FF31F3000057F
:103A9000ECD1012008E006EB4600BEFBF0F001305F
:103AA0006FF31F3040F4004040EA0C00C861086822
:103AB000D4E9072320F0C000104318430860886849
:103AC00048F2FF3204F10C0690434CCE18431043E9
:103AD000A5698860C86820F0FF0030432843C860AB
:103AE000086840F00100086000202021206484F86C
:103AF0003D10206384F83E0070BD000010B586B014
:103B0000016845F20040C4F2000081424FF000011C
:103B1000CDE90411CDE9021101D006B010BD41F28A
:103B20001804C4F20204216800F5384041F008018D
:103B30002160216801F0080101910199C0210291E1
:103B4000122103910321059102A9FFF707FE606886
:103B500040F400106060606800F40010019001986B
:103B600006B010BDB0B538B304460068D4E9011200
:103B70004CF6CC43036045F25553036041608260CC
:103B8000FFF7EEFE2168CA68920710D0054603E0F1
:103B90002168C86880070AD0FFF7E2FE401B28288A
:103BA000F6D32068C0688007F2D00320B0BD4AF683
:103BB000AA2008600020B0BD0120B0BD01684AF60F
:103BC000AA2200200A60704740F20C0040F6C001B3
:103BD000C2F20000C2F2000100780A6810440860D6
:103BE0007047000080B542F20000C4F20200016894
:103BF00041F010010160032000F064F8002000F0A3
:103C000005F800F02BF8002080BD0000B0B540F2B0
:103C10000C02C2F2000240F204011278C2F200016A
:103C20004FF47A730968B3FBF2F20446B1FBF2F188
:103C3000084600F073FF0F2C4FF001050CD858B95F
:103C40004FF0FF3021460022002500F02BF840F213
:103C50001000C2F2000004602846B0BD82B041F2FC
:103C60001800C4F20200016841F00101016001681E
:103C700001F0010101910199416841F080514160D9
:103C8000406800F08050009000980420C4F20100C9
:103C9000016821F0E061016002B0704780B501F079
:103CA0000FFF80BD70B514460D46064601F018FFA3
:103CB0002946224601F008F90146304601F018FF76
:103CC00070BD000080B501F025FF80BDF0B585B066
:103CD000F8B1044690F8A90228B9002084F8A80297
:103CE000204600F06FF8032084F8A902206801F054
:103CF000D9FE94E82F50D4E907678DE82050CDE92C
:103D0000036701F0BDFE30B1022084F8A90201254D
:103D100054E0012552E020680021002501F0CCFE8E
:103D20006168B1B1616801200023002203EB8303C5
:103D300004EBC30787F82820D3B20132FB86D3B245
:103D4000994287F8290087F82B50C7E90E553D6442
:103D5000ECD8A9B100200023002200BF03EB8303AD
:103D600004EBC30787F868210132D3B2994287F880
:103D7000690187F86B01C7E95E00C7F88001EDD8DB
:103D800004F10807D4E9056520688CCFD4E907CE93
:103D9000CDE9007602AE86E8205001F075FE20B134
:103DA000022084F8A902012508E00025012084F8FA
:103DB000245084F8A902206801F064FE284605B06A
:103DC000F0BD000081B0006845F60041C4F200017A
:103DD000884201D001B0704741F21C00C4F20200D9
:103DE000016841F400010160006800F400000090E7
:103DF000009801B0704700002020C4F20E2001217D
:103E00000160704780B5411E0F294FF0000043D874
:103E1000DFE801F00B34420842424208424242428B
:103E20004242424300F0E0F980BD41F20400C4F296
:103E30000200C16940F202320A40B2F5817F04BF3C
:103E40004FF4004080BD01F44071B1F5407F0DD0CA
:103E5000B1F5007F51D1026A920744BF49F6404054
:103E600080BDB1F5407F1CBF002080BD50F8040C20
:103E70004FF22441800301EAE07080BD00F0A2F916
:103E800041F20401C4F2020109680222C1F3813146
:103E900002EB4101B0FBF1F080BD41F20401C4F23C
:103EA00002010A6851F8040CC0015CBF002080BD0B
:103EB000C2F3834012A3185CD20305D440F600126B
:103EC000C0F23D0250430BE00A6811A3C2F3404226
:103ED0009A5C41F20023C0F27A03B3FBF2F2504342
:103EE0000968490248BF80BD4AF6AB214000CAF6C6
:103EF000AA21A0FB0101480880BD002080BD00BFB1
:103F000002030405060708090A0B0C0D0E0F10101A
:103F1000010200002DE9F04182B00446007841F230
:103F20001C06C007C4F202064ED03068C0000BD495
:103F300030684FF0010840F080503060306800F089
:103F400080500190019801E04FF0000847F200070F
:103F5000C4F200073868C00512D4386840F4807095
:103F60003860FFF7FDFC05463868C00508D4FFF748
:103F7000F7FC401B6428F7D9032002B0BDE8F081AC
:103F8000706810F4407012D0616801F4407188428A
:103F90000DD0706840F24042C4F24222012320F466
:103FA000407113600023C0071360716029D17068ED
:103FB000616820F440700843B8F1000F706003D0CE
:103FC000306820F0805030602068810707D556F8AF
:103FD000181CA26821F44041114346F8181CC00681
:103FE00003D4002002B0BDE8F08156F8180C6169D6
:103FF00020F48000084346F8180C002002B0BDE809
:10400000F081FFF7ADFC054641F288377068800704
:10401000CDD4FFF7A5FC401BB8424FF00300F5D903
:10402000ECE700002DE9F04381B0002800F0878024
:1040300042F20008C4F202080446D8F800000D4617
:1040400000F0070088420CD2D8F8000020F00700EA
:104050002843C8F80000D8F8000000F00700A84284
:104060006DD1206841F204098107C4F2020917D515
:10407000410705D5D9F8001041F4E061C9F80010F6
:10408000010705D5D9F8001041F46051C9F80010B6
:10409000D9F80010A26821F0F0011143C9F800100E
:1040A000C00745D1D8F8000000F00700A8420CD99D
:1040B000D8F8000020F007002843C8F80000D8F81E
:1040C000000000F00700A84239D12068410707D559
:1040D000D9F80010E26821F4E0611143C9F800103A
:1040E000000708D5D9F80000216920F4605040EAA3
:1040F000C100C9F8000000F077F8D9F8001047F2C5
:10410000C402C1F30311C0F60002515C40F2040284
:1041100020FA01F140F21000C2F200000068C2F281
:1041200000021160FFF772FD002001B0BDE8F083CE
:104130006068012807D159F8041C89030CD40120B8
:1041400001B0BDE8F08359F8041C022802D18901AE
:10415000F5D501E08907F2D5D9F8001021F0030167
:104160000843C9F80000FFF7FBFB064641F2883719
:10417000D9F80000616800F00C00B0EB810F91D01D
:10418000FFF7EEFB801BB842F2D9032001B0BDE877
:10419000F083000040F20400C2F2000000687047A3
:1041A00080B5FFF7F7FF41F20401C4F2020109688C
:1041B00047F2D402C1F30221C0F60002515CC840AC
:1041C00080BD000080B5FFF7E5FF41F20401C4F2B5
:1041D0000201096847F2D402C1F3C221C0F600020D
:1041E000515CC84080BD000041F2040CC4F2020CD6
:1041F000DCF8003003F00C00082841F20020C0F287
:104200007A0018BF7047C3F383420AA18A5CD903BE
:1042100005D440F60010C0F23D0050437047DCF872
:10422000001008A3C1F34041595C5043B0FBF1F0CA
:10423000704700BF02030405060708090A0B0C0DAE
:104240000E0F1010010200002DE9F04182B000288D
:1042500000F0C4800446007841F20006C007C4F2B2
:10426000020643D0706800F00C00042817D0706874
:1042700000F00C00082802D17068C0030FD46568F4
:104280009DB1B5F5803F06D03068B5F5A02F0DD1B2
:1042900040F480203060306840F480300CE03068BA
:1042A000800323D5606808BB98E0306820F4803034
:1042B0003060306820F480203060FFF751FB002D23
:1042C000054610D03068800310D4FFF749FB401B2F
:1042D0006428F7D908E100BFFFF742FB401B6428C0
:1042E0004FF0030077D830688003F5D4207880073A
:1042F00018D5706810F00C0F07D0706800F00C0033
:10430000082826D17068C00323D43068800702D5FE
:104310002069012862D13068616920F0F80040EA24
:10432000C1003060207800073DD5A06938B3002077
:10433000C4F242200121C0F88014FFF711FB0546AA
:10434000706A80072DD4FFF70BFB401B0228F7D9BA
:10435000CAE02069002840F20000C4F2422000F0C8
:104360009A8001210160FFF7FBFA0546306880075B
:10437000D1D4FFF7F5FA401B0228F7D9B4E00020AA
:10438000C4F242200021C0F88014FFF7E9FA054684
:10439000706A800707D5FFF7E3FA401B0228F7D9B8
:1043A000A2E000F0CFFD207840071BD4E5698DB175
:1043B000706800F00C0008284CD1012D0ED07068F8
:1043C000216A00F480328A4208D1616A00F47010D8
:1043D000884203D1002002B0BDE8F081012002B084
:1043E000BDE8F081F069C0000BD4F0694FF001081E
:1043F00040F08050F061F06900F080500190019829
:1044000001E04FF0000847F20007C4F200073868E7
:10441000C00510D4386840F480703860FFF7A0FA07
:10442000054600BF3868C00505D4FFF799FA401B60
:104430006428F7D958E0E568002D3DD0012D05D05E
:10444000306A052D39D140F004003062306A40F006
:10445000010038E00027C4F2422700203866FFF749
:104460007FFA022D05460BD13068800154D5FFF745
:1044700077FA401B02284FF00300F5D9ABE700BFE5
:1044800030688001A6D5FFF76BFA401B02284FF079
:104490000300F5D99FE700210160FFF761FA0546A7
:1044A000306880077FF53EAFFFF75AFA401B0228BD
:1044B0004FF00300F4D98EE7306A20F0010030623B
:1044C000306A20F004003062FFF74AFA002D0546FA
:1044D00041F2883714D000BF306A800713D4FFF749
:1044E0003FFA401BB842F7D9032002B0BDE8F08183
:1044F000FFF736FA401BB8424FF003003FF66BAFB0
:10450000306A8007F4D4B8F1000F3FF44FAFF06980
:1045100020F08050F06149E7206AB0F5803F05D176
:104520007168A26821F40031114371607168626A98
:1045300021F4741110430843706001203866FFF7BE
:104540000FFA0446306880013FF544AFFFF708FAE0
:10455000001B02284FF00300F4D93CE7B0B5002857
:1045600042D00446407C20B900202074204600F050
:1045700047F802206074204600F064F878BB2046BB
:1045800000F0F6FC58BB2268A068536846F62C4140
:10459000C4F2000123F00703536018B14A6822F007
:1045A00001024A600A6822F4607210430860606881
:1045B000411C05D101200125FFF724FCF0B1013891
:1045C00021688A6822F00F0242EA10428A60CA68B3
:1045D00060F30F022046CA6000F0E2FC30B1012512
:1045E000042060742846B0BD0120B0BD40F2011027
:1045F0000025A4F80D000120E573F2E70420F0E7A0
:1046000080B582B0006842F60001C4F20001884221
:1046100001D002B080BDFFF7EFFB41F21C00C4F2F5
:104620000200016841F0006101600068012100F0B2
:1046300000600190019840F23C40C4F242200160C9
:1046400002B080BDB0B5A8B104460068416821F051
:1046500008014160FFF784F9054600BF2068406803
:10466000000709D4FFF77CF9401BB0F57A7FF5D934
:104670000320B0BD0120B0BD0020B0BD2DE9F04148
:1046800084B00446032084F83400606C0D4603288F
:104690000AD0C5B3B5F5805F06D0B5F5006F36D149
:1046A000204601F0EDF801E04FF08050A16B40F2A0
:1046B000FF580843A063A06BC0F2400830B12068E7
:1046C0000125C0F8388084F8345008E094E80F00E1
:1046D000D4E905678DE8E00000F09AFC0025206829
:1046E0004FF4007100F000FD30B121680125C1F8E0
:1046F0003880A16B0843A0630121284684F8341058
:1047000004B0BDE8F081204601F08EF8CEE74FF00E
:104710000060CBE780B5D0E9193ED0F844C09A0FCD
:104720000A70C3F383624A70C3F301628A701A0C81
:10473000CA701A0A0A714FEA1E524B71CA80CEF330
:1047400003420A72CEF3C0324A72CEF380328A72CA
:10475000CEF34032CA72CEF300320A730022BCF1AB
:10476000010F4A732DD0BCF1000F40F0808040F65D
:10477000FC72C36E02EA8E0242EA93720A61C26E52
:10478000C2F3C2630B75C2F302634B75C2F34253AB
:104790008B75C2F38243CB75C2F3C2320A760A69C3
:1047A0000B7E013203F0070302339A4042650B7A15
:1047B00003F00F0C012303FA0CF383655B0A5A43E1
:1047C0000FE0B0F86E200EF03F0342EA03420A61A8
:1047D0000A694FF4806303EB82224FF40073C0E94F
:1047E0001523C2654FF400720266D0E91B20C2F3A4
:1047F00080334B76C2F3C61302F07F028B76CA7603
:10480000C20F0A77C0F341724A77C0F382628A7797
:10481000C0F38352CA77C0F3405281F820200022AF
:1048200081F82120C0F3004381F82230C0F3C03367
:1048300081F82330C0F3803381F82430C0F3403353
:1048400081F82530C0F3003381F82630C0F381238E
:1048500081F82730C0F30123C0B2400881F8283026
:1048600081F82900012081F82A00104680BD0168E6
:1048700040F2FF52C0F240028A63816B012241F094
:104880008051816380F83420104680BD10B5D0B1CE
:10489000044690F8340020B900202077204600F02C
:1048A0005BF8032084F83400204600F00FF800285D
:1048B0004FF0010018BF10BD0021A163216384F8EF
:1048C0003400002010BD012010BD0000F0B583B001
:1048D0000446006876210026029100210022002370
:1048E0000096019600F094FB4FF0010588BBA027CD
:1048F000C4F230273E60206800F0A0FB20463D60F7
:1049000000F03AFF30B1012584F83450A16B084320
:10491000A0631EE0204600F0B1FE30B1012584F80E
:104920003450A16B0843A06313E020684FF400717A
:1049300000F0DAFB60B1216840F2FF52C0F24002A1
:104940008A63A16B01250843A06384F8345000E01A
:104950000025284603B0F0BDF0B585B041F2000453
:10496000C4F20104006804F5E04188424FF0000001
:10497000CDE90300CDE9010001D005B0F0BD41F261
:104980001800C4F2020050F8041C01AD41F480612B
:1049900040F8041C50F8041C022601F480610091C8
:1049A00000990168032741F010010160016801F0DE
:1049B000100100910099016841F020010160006838
:1049C000294600F02000009000984FF4F850019024
:1049D000204602960497FEF7C1FE0420CDE90106A9
:1049E00004F5806029460497FEF7B8FE05B0F0BDD7
:1049F00070B538B10446406A30B10020206104F13E
:104A0000140007E0012070BD6068B0F5827F03D01C
:104A100004F11C00002101600026A66294F85100F8
:104A200020B9204684F8506000F038F8022084F85D
:104A3000510094E8071001F48271036802F4044203
:104A400023F040030360236911440CF40062114415
:104A500003F002026369114403F00102A369E569EE
:104A6000114403F40072114405F03802256A114420
:104A700005F08002A56A114305F40052114301605C
:104A8000042101EA13414160C16921F40061C1615F
:104A90000120666584F85100304670BD70B586B05F
:104AA000002640F600440596CDE90366C4F20104F1
:104AB0000068A4F554418842029601D006B070BD4A
:104AC00041F21800C4F20200416802AD41F4804195
:104AD0004160416801F4804101910199016841F010
:104AE000080101600068294600F008000190019863
:104AF0004FF42040029002200390032005902046AE
:104B0000FEF72CFE4FF48040CDE9020620462946F0
:104B10000496FEF723FE06B070BD000080B500F0DD
:104B2000F1FE80BD002804BF0120704710B5044687
:104B300090F83D0028B9002084F83C00204600F0A1
:104B400021F8242084F83D002068C16821F4005138
:104B5000C160204600F040FF2068016921F49041C7
:104B60000161416921F02A014161C16841F40051AC
:104B7000C16000202021206484F83D1084F83E109C
:104B800010BD000010B586B0006844F2004140F648
:104B90000004C4F20001C4F2010488424FF0000195
:104BA000CDE90411CDE9021129D043F60001C4F288
:104BB000010188424CD141F21800C4F202000168A0
:104BC00041F480410160016801F480410191019943
:104BD000016841F004010160006802A900F00400CE
:104BE000019001984FF4007002900220039003207E
:104BF00005902046FEF7B2FD4FF4806020E041F2C0
:104C00001800C4F20200416841F40031416041687B
:104C100001F4003101910199016841F00401016042
:104C2000006802A900F0040001900198042002909D
:104C300002200390032005902046FEF78FFD0820F8
:104C400002900020CDE9030002A92046FEF786FD70
:104C500006B010BDFEE700002DE9F04F85B04FF023
:104C6000000A41F21800CDE903AACDE901AAC4F275
:104C70000200016841F6000541F040010160016851
:104C8000C4F2010501F04001009100990168002281
:104C900041F01001016001684FF0200901F010019E
:104CA00000910099016841F004010160016801F080
:104CB000040100910099016841F008010160016858
:104CC00001F0080100910099016841F020010160A4
:104CD0000068202100F02000009000982846FEF790
:104CE00039FEA5F5406B58464FF4895100224FF428
:104CF0008958FEF72FFE1C2001AECDE9010A0127DD
:104D0000284631460397FEF729FD022428463146FE
:104D1000CDE90197CDF80CA00494FEF71FFDA5F591
:104D200080503146CDE9017A0394FEF717FD5846CD
:104D30003146CDE90187CDE903A4FEF70FFD05B0AB
:104D4000BDE8F08F80B540F2180045F20041C2F294
:104D50000000C4F2000148F2A06200234FF4804C2E
:104D6000C0F2010280E80E00C0E9033CC0E905334F
:104D7000C0E90733FEF7FAFD80BD000080B540F2C0
:104D80006C0043F20001C2F20000C4F200010322F1
:104D900040F6FF7380E80E00FEF7E4FE80BD0000E1
:104DA00080B540F2643042F60001C2F20000C4F265
:104DB00000014FF0FF324FF4807380E80E00FFF7E0
:104DC000CDFB80BD10B540F2783448F20000C2F24D
:104DD0000004C4F201000021C4E900012046C4E936
:104DE0000211C4E90411A161FFF750FD20464FF400
:104DF0000061FFF743FC10BD80B540F2FC3043F684
:104E00000001C2F20000C4F200014FF482720023DC
:104E100080E80E0000F114014FF4007C4FF0080E02
:104E2000C0E9033381E808500A21C0E90833C0E92A
:104E30000A31FFF7DDFD80BD80B540F2544043F6F6
:104E40000001C2F20000C4F2010100234FF00C0C7B
:104E50004FF4E13280E80E00C0E90333C0E905C336
:104E6000C361FFF75FFE80BD80B540F2984044F219
:104E70000041C2F20000C4F2000100234FF00C0C0C
:104E80004FF4E13280E80E00C0E90333C0E905C306
:104E9000C361FFF747FE80BD80B540F2780045F65C
:104EA0000041C2F20000C4F200010822022380E89F
:104EB0000E000021C0E906110162FEF707FF80BD68
:104EC000FEE700007047000000F0070080F00703D5
:104ED000042B28BF04234FF0FF3C03380CFA03F3E4
:104EE00038BF0020994381400CFA00F022EA00000C
:104EF00008437047000000000000000000000000B0
:104F0000EFF30980BFF36F8F0D4B1A6820E9F00FA4
:104F100010602DE908404FF0500080F3118801F037
:104F2000F3F94FF0000080F31188BDE808401968DC
:104F30000868B0E8F00F80F30988BFF36F8F7047FF
:104F4000DC04002081B040F20400C2F200000068DE
:104F500044F6D351C1F26201A0FB0101480A00905E
:104F600000BF0098411E00280091F9D101B07047A0
:104F7000B0B50446FEF7F4FC054600BF2068416862
:104F8000890607D4FEF7ECFC401BB0F57A7FF5D913
:104F90000320B0BD416841F0100141600020B0BD68
:104FA000B0B504460068416821F010014160FEF789
:104FB000D7FC054620684068800607D4FEF7D0FC81
:104FC000401BB0F57A7FF5D90320B0BD0020B0BDFD
:104FD00080B5024691E809505062936208694EEA32
:104FE0000C0318434969D36A084323F0F7010143CE
:104FF0000020D16280BD00000069C0B2704700008F
:10500000006800F0030070470844406970470000E2
:1050100010B58446DDE90240114319432143DDF810
:1050200010E00843DCF8041047F6FF6240EA0E0087
:10503000914301430020CCF8041010BD80B503213A
:1050400001600220FEF776FB002080BDD0F88000D2
:105050007047000080B5D1E900C30246D1E9020ED5
:10506000C2F808C01843096940EA0E000843D16835
:1050700040F6FF73994301430020D16080BD0000DA
:1050800010B586B0044637200290402003900020DF
:1050900004904FF480600191059001A92046FFF72C
:1050A000D9FF2046372141F2883200F011F906B0CD
:1050B00010BD000010B586B0044641F0004040F439
:1050C000801001902920029040200390002004903D
:1050D0004FF48060059001A92046FFF7BBFF2046F2
:1050E00000F0BCF906B010BD10B586B00446102023
:1050F000029040200390002004904FF480600191C2
:10510000059001A92046FFF7A5FF2046102141F296
:10511000883200F0DDF806B010BD000010B586B092
:1051200004460620029040200390002004904FF493
:1051300080600191059001A92046FFF78BFF204672
:10514000062141F2883200F0C3F806B010BD00001D
:1051500010B586B004460020CDE90300CDE901007A
:105160004FF48060059001A92046FFF773FF2046A9
:1051700000F092F806B010BD10B586B004464FF4AA
:10518000D5700190082002904020039000200490E8
:105190004FF48060059001A92046FFF75BFF204691
:1051A00000F0CEF906B010BD10B586B00446072059
:1051B000029040200390002004904FF480600590FE
:1051C00001A920460192FFF745FF2046072141F241
:1051D000883200F07DF806B010BD000010B586B032
:1051E0000221044600200291C0210190CDE9031064
:1051F0004FF48060059001A92046FFF72BFF204661
:1052000000F000F906B010BD10B586B004460920C4
:105210000290C0200390002004904FF48060019120
:10522000059001A92046FFF715FF204600F0EAF897
:1052300006B010BD10B586B033210446002002919F
:1052400040210190CDE903104FF48060059001A941
:105250002046FFF7FFFE2046332141F2883200F05E
:1052600037F806B010BD0000B0B586B00C4603217B
:1052700005460020029140210190CDE903104FF432
:105280008060059001A92846FFF7E4FE28462146E4
:1052900000F00AF906B0B0BD40F20401C2F200010C
:1052A000096844F6D352C1F26202A1FB0212510A0C
:1052B00041F288325143C943013124BF4FF00040CD
:1052C0007047426B1206F7D5C521816300207047F5
:1052D00070B540F20403C2F200031B6844F6D355D4
:1052E000C1F26205A3FB05340546600A50430E4631
:1052F000013000BF013878D0696B11F0450FF9D04B
:1053000011F40061F6D1686B400771D4686BC00777
:1053100070D1C520A8632846FFF76EFEB0421CBFBF
:10532000012070BD284600210024FFF76DFE4EF2DB
:105330000801CFF6FF51084255D000285ED4410045
:1053400044BF402070BD810044BF802070BDC100BB
:1053500044BF4FF4807070BD010144BF4FF4007032
:1053600070BD410144BF4FF4806070BDC10144BFB6
:105370004FF4006070BD010244BF4FF4805070BD17
:10538000410244BF4FF4005070BD810244BF4FF44E
:10539000804070BDC10244BF4FF4004070BD410366
:1053A00044BF4FF4003070BD810344BF4FF48020F0
:1053B00070BDC10344BF4FF4002070BD010444BF61
:1053C0004FF4801070BD410444BF4FF4001070BD15
:1053D000810444BF4FF4800070BD4FF40004000707
:1053E00058BF4FF48034204670BD4FF0004070BD70
:1053F000042400E001242046AC6370BD4FF000702F
:1054000070BD000040F20401C2F20001096844F6D8
:10541000D352C1F26202A1FB0212510A41F2883258
:105420005143C943013124BF4FF000407047426BE4
:1054300012F0450FF6D012F40062F3D1416B490728
:1054400006D4416BC90705D1C5218163002070478F
:10545000042100E0012181630846704740F2040105
:10546000C2F20001096844F6D352C1F26202A1FB04
:105470000212510A41F288325143C943013124BF1B
:105480004FF000407047426B12F0450FF6D012F417
:105490000062F3D1416B042211F0040108BFC52260
:1054A0008263084670470000B0B540F20402C2F2C1
:1054B0000002126844F6D353C1F26203A2FB032335
:1054C0000C460546580A41F288314843C04300BFA4
:1054D000013028D2696B11F0450FF9D011F4006149
:1054E000F6D1686B400721D4686BC00721D12846EC
:1054F000FFF782FD03281CBF0120B0BDC520A863B3
:1055000028460021FFF780FD10F4604F14D04104BD
:1055100044BF4FF40050B0BD00044FF4805058BF5A
:105520004FF48030B0BD4FF00040B0BD0420A86300
:10553000B0BD0120A863B0BD000C20800020B0BD2C
:1055400040F20401C2F20001096844F6D352C1F2EC
:105550006202A1FB0212510A41F288325143C9434F
:10556000013124BF4FF000407047426B12F0450FED
:10557000F6D012F40062F3D1416B49070BD4416BB2
:10558000C9070AD1416B49065CBF00207047402122
:10559000816300207047042100E0012181630846F7
:1055A000704700002DE9F04188B00C460546FEF733
:1055B000D7F9064600212868019100910821FFF7DC
:1055C00093FD10B108B0BDE8F081296D2868090489
:1055D000FFF756FD0028F5D14FF0FF30029008206C
:1055E00003903020049002200590002006900121B5
:1055F0002868079102A9FFF7EBFC2868FFF71AFE5D
:105600000028DFD10027E8460DE000BF0846FFF77D
:105610001DFD48F827000137FEF7A2F9801B013075
:105620004FF00040CED02968486B10F02A0F05D10A
:10563000486B8002EAD4486B8004EDD4486B0007C5
:1056400012D4486B800711D4486B800610D440F206
:105650003A508863DDE9001000BA09BAC4E90001D4
:10566000002008B0BDE8F081082002E0022000E040
:105670002020886308B0BDE8F081000010B590B02C
:10568000044600680121ADF81210FFF7B9FC40B1E3
:10569000606C032821D02068FFF7A0FD28B110B06E
:1056A00010BD4FF0806010B010BD20680021FFF7E2
:1056B000ABFC2168606708460421FFF7A5FC216860
:1056C000A06708460821FFF79FFC2168E0670846AD
:1056D0000C21FFF799FCC4F88000606C032806D009
:1056E00020680DF11201FFF7BFFD0028D7D1606CD3
:1056F00003281FD0BDF81210206821650904FFF7A8
:1057000083FD0028CBD120680021FFF77DFC2168B4
:10571000606608460421FFF777FC2168A06608460A
:105720000821FFF771FC2168E06608460C21FFF7AD
:105730006BFC206720680421FFF766FC000DE06425
:1057400005A92046FEF7E6FF18B14FF0805010B0D3
:1057500010BD216D20680A040023FFF725FD0028F5
:105760009DD194E80F50A469CDE900CE0294FFF7D3
:105770004FFC002010B010BDF0B581B004460020F1
:1057800000902068FFF7E4FC08B101B0F0BD20688C
:10579000FFF7F2FC38B120680021A164FFF7D8FCC4
:1057A0000028F2D101E00120A064A06C012808D1FA
:1057B00020680021FFF764FC18B14FF0805001B061
:1057C000F0BD00984FF6FE76B04221D80025CCF20D
:1057D00010154FF6FF7700BF20680021FFF750FC3F
:1057E0000028D2D120682946FFF764FC0028E4D1C4
:1057F00020680021FFF708FC0099002801F1010151
:105800000091009901D4B942E6D3C0F3807000E062
:1058100000200099B14203D94FF0807001B0F0BD73
:105820006064002001B0F0BD10B582B004460021D4
:105830000068019100910021FFF7E6FB800106D48A
:1058400069462046FFF7AEFE28B102B010BD4FF406
:10585000006002B010BD9DF80600C00703D14FF0F4
:10586000806002B010BD216D20680904FFF708FCBC
:105870000028EAD120680021FFF750FC02B010BDDB
:1058800010B582B00446002100680191009100210A
:10589000FFF7BAFB800106D469462046FFF782FE77
:1058A00028B102B010BD4FF4006002B010BD9DF8E9
:1058B0000600400703D44FF0806002B010BD216D98
:1058C00020680904FFF7DCFB0028EAD120680221E8
:1058D000FFF724FC02B010BD000000000000000033
:1058E000074B19680868B0E8F00F80F30988BFF328
:1058F0006F8F4FF0000080F311884EF00D0E70474F
:10590000DC040020B0B501380024B4EB106F1CBFDC
:105910000120B0BD4EF21005CEF2000568604FF0D8
:10592000FF300F2100F0E4F80720AC60286020462B
:10593000B0BD000080B500F05DFD012818BF00F08B
:1059400041FDFEF741F980BD70B596B00CAC204624
:105950002821FDF722FC092000250C904FF480300F
:1059600001210226CDE90D0510911291CDE91360B8
:105970004FF48010159020460B95CDE90955CDE9DF
:105980000755CDE90555CDE90355CDE90155FEF79C
:105990005BFC0F20CDE907064FF480600995CDE947
:1059A0000A0007A80121FEF73DFB112001904FF4EA
:1059B000007002904FF48000069001A8FEF7AAFA4A
:1059C00016B070BD4EF6085043F20001CEF2000052
:1059D000C0F600010160704710B504460068D4E9C4
:1059E00002C22369016921F44051114301616169D7
:1059F00043EA0C021143C26841F20C639A4311431B
:105A0000C1604169A26921F44071114343F600026B
:105A1000C4F201029042416102D0FEF7C1FB01E0F5
:105A2000FEF7D0FB6268192148439100B0FBF1F00A
:105A300048F21F51C5F2EB11A0FB01235A096FF088
:105A4000630302FB0300322303EB0010A0FB010100
:105A5000F02303EA5113206803EB0212C1F3431150
:105A60001144816010BD000080B544F20040C4F2D2
:105A7000000001680068000648BF00F063FB80BDBD
:105A8000002070470020704701460120A1F8400027
:105A900000220020A1F84020A1F84420A1F85020C5
:105AA000704700000146B0F8400044F2FF02024097
:105AB0000020A1F84020704700207047FEE700005A
:105AC000002848BF704700F01F01012202FA01F1CF
:105AD0004EF200124009CEF2000242F82010704748
:105AE0004EF60C50CEF200000068C0F30220704762
:105AF0004EF6145300F00F02CEF2000309011A44CF
:105B000000F16043B0F1FF3FC8BF03F5644211707C
:105B1000704700004EF60C51CEF200010A684FF6B5
:105B2000FF031A4060F30A2242F0806040F0FD70EB
:105B300008607047B0B50446EFF311854FF0500090
:105B400080F31188BFF36F8FBFF34F8F2089628975
:105B5000904203D1002085F31188B0BD6368A27B19
:105B6000034408461946FDF7FFFA2089A17BA28964
:105B70000844B0FBF2F101FB12002081012085F303
:105B80001188B0BD80B582B040F6340040F2687232
:105B90000FF2180CC2F20000C2F200020121C92368
:105BA000CDF800C000F026F802B080BD2673556124
:105BB0007274517565756500EFF3118C4FF05001EB
:105BC00081F31188BFF36F8FBFF34F8F41898389B2
:105BD00002891944891A91FBF3F28CF3118802FBB4
:105BE0001311828989B2807B511A91FBF0F0013840
:105BF00080B2704780B5DDF808C0B3FBF1F3817364
:105C00004B430CF101014FF0000E838180E8064008
:105C100080BD000080B540F26C00C2F20000FDF7CC
:105C2000CDFF80BD84B000F055F800F06BF8FFF7B1
:105C3000A9FF40F6480040F658021BA7C2F2000038
:105C4000C2F20002012165230097FFF7D3FF002075
:105C50000DF10601085401300A28FBD141F6000875
:105C60000A27C4F201080FF248090DF1060A12A42E
:105C700015A600BFFFF7CEFF4FF4FA70FDF75AFDEF
:105C800040462021FDF75EFE0120494652460A2388
:105C900000F0B2F820463B2132463B467D1C00F026
:105CA00001F92F46E6E700BF267465737400000013
:105CB00061626364656600002E2E2F4150502F6D87
:105CC00061696E2E63000000636F756E7420257528
:105CD0000D0A000080B5FDF785FFFFF735FEFEF7E2
:105CE000BBFFFFF72FF8FFF749F8FFF76BF8FFF757
:105CF00083F8FFF7A1F8FFF7B7F8FFF7CDF8FFF744
:105D00004FF880BD80B525200F210022FDF7CAFF86
:105D10002520FDF7C3FF262002210022FDF7C2FF48
:105D20002620FDF7BBFF80BD81B070B5B5B040F255
:105D30000806C2F2000636683993064239A8019077
:105D40000DD040F63100C2F200000078884206D241
:105D5000019B0DF10B00C82100F018FD044640F630
:105D60003400C2F20000FFF727FFE4B2A04213D2D2
:105D70004EF64F40C4F6C460A4FB000140F6340662
:105D80008D08C2F2000600BF284600F089FA3046AE
:105D9000FFF712FFA042F7D340F6340047F22B136F
:105DA0006326C2F20000C0F600030DF10B0122468B
:105DB000009600F02BF940F64400C2F20000007893
:105DC000C00713D140F63400C2F200000DF1D30138
:105DD000FFF7B0FE9DF8D30044F20C41C4F200017D
:105DE00041F8080C086840F08000086035B0BDE854
:105DF000704001B0704700002DE9F04FB3B00F467E
:105E0000054601A8C8219B469046FDF7C6F940F219
:105E10000800C2F200000068284237D00DF10409E2
:105E200048463946FDF7D9F9FDF7C2F9824648469A
:105E30003946FDF7C4F920B116A201200221FFF76F
:105E400073FF5FFA8AF0BBF1000F09EB00070DD07A
:105E5000A8F1010611A55C4616F8012F384629461F
:105E600000F080FC013C07F10307F5D10BEB4B0080
:105E70005044C0B2002140F60D220230B9703A8081
:105E800009F80010C1B2484600F016F933B0BDE879
:105E9000F08F00BF6572726F720D0A0020253032DC
:105EA0007800000081B070B5B3B016460D460246CA
:105EB00037A801AC3793009010A120462B4600F084
:105EC00051FC0546C0B2009B2044C821324600F078
:105ED0005DFC284445F61B33C1B2C6F63053621848
:105EE0006350002104301171C1B2204600F0E4F883
:105EF00033B0BDE8704001B0704700BF1B5B303B62
:105F000033316D4572726F722022257322206661D3
:105F1000696C6564206174206C696E65202575204C
:105F200000000000F0B581B00D4640F6081140F2C7
:105F3000DC46C2F20001C2F200060F683168044676
:105F4000081D00F023F910B1601C0FD027E0306865
:105F500040F6CC02C06AC2F200020121136801FAC5
:105F600000F023EA00001060601C18D1BDB140F6BB
:105F7000F400C2F200004168326891608A683368B8
:105F8000DA6032688B6804325A60326804328A60A0
:105F90003168486101680131016001B0F0BD3068CD
:105FA000E41944600AD340F2E440C2F20000006801
:105FB0003168043100F012F901B0F0BD40F2E04068
:105FC000C2F2000000683168043100F007F940F6C1
:105FD000D000C2F2000001688C4238BF046001B0FA
:105FE000F0BD000040F2E040C2F200000168096824
:105FF00019B10068C068006801E04FF0FF3040F65A
:10600000D001C2F200010860704700002DE9F0479E
:1060100082B00446EFF311884FF0500080F31188EE
:10602000BFF36F8FBFF34F8F6089A78926893D1813
:10603000AE1B96FBF7F505FB17661546F2433A448F
:1060400092B2AA420ED226680A9F47F21A12009311
:10605000C0F600020120022133460197FFF764FEDB
:10606000002024E000EB05091FFA89FA0E46BA4524
:1060700009D261682A4608443146FDF775F8A4F84C
:106080000A90012013E061683A1A97B20844314639
:106090003A46FDF769F86068F119EA1BFDF764F804
:1060A000A089BAFBF0F101FB10906081012088F318
:1060B000118802B0BDE8F087F0B583B0054640F620
:1060C0003400C2F200000C46FFF776FDA0420DD26C
:1060D00040F63407E608C2F2000700BF304600F081
:1060E000DFF83846FFF768FDA042F7D340F63400EA
:1060F00047F22B138427C2F20000C0F600032946A2
:1061000022460097FFF782FF40F64400C2F20000EB
:106110000078C00713D140F63400C2F200000DF140
:106120000B01FFF707FD9DF80B0044F20C41C4F290
:10613000000141F8080C086840F08000086003B0D6
:10614000F0BD000010B582B040F6340044F20C44BB
:10615000C2F200000DF10701C4F20004FFF7EAFCEF
:1061600028B19DF8070044F8080C02B010BD206863
:1061700020F08000206040F64400C2F20000017868
:1061800001F0FE01017002B010BD0000D0E9012352
:10619000016993604B68D0F808C08342CCF80420B2
:1061A00001D182684A6000220261086801380860F3
:1061B0000868704780B502A000F0C4FA80BD00BF37
:1061C0005461736B20257320737461636B206F7649
:1061D0006572666C6F770D0A0000000080B5D1F81B
:1061E00000C01CF1010207D000F108039E465B6865
:1061F0001A686245FAD901E0D0F810E0DEF8042010
:1062000008614A609160C1F808E0CEF804100168A6
:106210000131016080BD000080B54FF0500080F377
:106220001188BFF36F8FBFF34F8F40F21400C2F29B
:10623000000001684A1C026001B180BD4EF60450A6
:10624000CEF200000068000608BF80BD47F2DC0007
:1062500047F2FE01C0F60000C0F600014FF4BE7226
:1062600000F070FA80BD000010B540F21404C2F2D4
:106270000004206858B947F2DC0047F2FE01C0F67E
:106280000000C0F6000140F2831200F05BFA2068C3
:106290000138206018BF10BD002080F3118810BDA8
:1062A00010B5E8B1044640F6C800C2F2000000682C
:1062B00058B147F2DC0047F2EA01C0F60000C0F630
:1062C000000140F24E5200F03DFA00F015F8204671
:1062D0000021FFF727FE00F07BF9002818BF10BD52
:1062E0004EF60450CEF200004FF080510160BFF333
:1062F0004F8FBFF36F8F10BD40F6C800C2F2000091
:10630000016801310160704770B540F6C800C2F203
:106310000000006830B140F60C10C2F2000001210C
:10632000016070BD40F60C10C2F20000002140F286
:10633000DC440160C2F200042068006B0168B1F126
:10634000A53F0BD14168B1F1A53F07D18168B1F1FB
:10635000A53F03D1C068B0F1A53F04D020682168F3
:106360003431FFF727FF40F6CC00C2F2000000688E
:10637000B0FA80F0C0B2C0F11F0040F2E84600EB76
:106380008005C2F2000656F8250058B947F2DC0035
:1063900047F2EA01C0F60000C0F600014FF4416286
:1063A00000F0D0F906EB850050F8041F4968021D83
:1063B0009142016001D1496801600068C0682060B5
:1063C00070BD000080B54FF0500080F31188BFF31E
:1063D0006F8FBFF34F8F00F021F830B14EF60450AD
:1063E000CEF200004FF080510160002080F3118850
:1063F00080BD000040F6F000C2F2000000680028F6
:1064000004BF0120704740F6C800C2F200000068D7
:10641000B0FA80F040094000704700002DE9F04FCD
:1064200081B040F6C800C2F20000006850B140F6EA
:10643000D800C2F20000016801310160002001B003
:10644000BDE8F08F40F60810C2F20000016811F1BB
:106450000108C0F8008023D340F2E045C2F20005F5
:106460002868006858B147F2DC0047F2EA01C0F63C
:106470000000C0F6000140F6D42200F063F940F2BB
:10648000E441C2F2000128680A682A60086040F608
:10649000D400C2F20000016801310160FFF7A2FDE3
:1064A00040F6D001C2F20001086840F2E84E804593
:1064B000C2F2000E01D2002071E040F2E04BC2F2C5
:1064C000000BDBF80000006800285DD040F6CC0A25
:1064D0004FF00109C2F2000A00202AE00021B9624F
:1064E000296801392960F96ADAF8003009FA01F6F9
:1064F0003343CAF8003001EB81030EEB8306756865
:106500007E61AC68BD60FC60AC68AA6062605EF8E9
:10651000232001324EF8232040F2DC42C2F2000276
:106520001268D26ADBF800309142196828BF4846E9
:1065300071B3DBF80020D268D7683A4652F8045F9E
:10654000A84527D3D7E902637D69B3606B68D7F8A4
:106550000CC09342CCF8046001D1FB686B60002151
:1065600079612B68013B2B60BD6A002DBBD0D7E958
:10657000073607F118049E606E68396AA6424B60C0
:10658000ACD1396A6960A9E74FF0FF35002005E01A
:106590004FF0FF3540F6D001C2F200010D6040F22D
:1065A000DC41C2F200010968C96A01EB81015EF8B1
:1065B0002110012940F60C11C2F2000188BF012010
:1065C0000968002918BF012001B0BDE8F08F000064
:1065D0002DE9F04F81B040F6C804C2F200042068F3
:1065E00058B947F2DC0047F2EA01C0F60000C0F6F5
:1065F000000140F6B90200F0A5F8FFF70DFE206893
:1066000001382060206830B10024FFF72DFE2046BD
:1066100001B0BDE8F08F40F6C400C2F2000000688F
:10662000002800F08B8040F6DC0AC2F2000ADAF89B
:10663000001040F60C180029C2F200085CD040F6A9
:10664000CC0B40F2E84440F2DC4E4FF0000C4FF02F
:106650000109C2F2000BC2F20004C2F2000E25E0F2
:10666000086801380860F06ADBF8001009FA00F2E7
:106670001143CBF8001000EB800104EB8102556858
:106680007261AB68B560F360AB68AF605F6054F88F
:106690002120013244F82120DEF80010C96A884226
:1066A00028BFC8F80090DAF8000008B3DAF80C1038
:1066B000CE68D6E90752B76AAA607A6806F118016F
:1066C000306A8A42456001D1306A7860C6F828C0D5
:1066D000386801383860D6E90202716982604A6818
:1066E000371DF568BA426860BAD1F0684860B7E70C
:1066F000002E18BFFFF776FC40F6D804C2F2000463
:1067000025685DB1012600BFFFF788FE002818BF8D
:10671000C8F80060013DF7D100202060D8F80000E3
:1067200070B14EF60450CEF200004FF0805101607F
:10673000BFF34F8F0124BFF36F8F66E7002464E738
:10674000002462E70FB4054B10B503A9044A029870
:1067500000F008F910BC5DF814FB0000B3700008ED
:10676000000000200FB4084B10B504A902AA03983A
:1067700000F0F8F8044602A9002000F095FC20463D
:1067800010BC5DF814FB0000A97000087CB50C007B
:106790001D461646014601D0601E00E00020CDE9EE
:1067A0000010064B6A462946304600F0DBF8002C04
:1067B00002D0009A002111707CBD00009370000887
:1067C00002E008C8121F08C1002AFAD170477047BA
:1067D000002001E001C1121F002AFBD17047000018
:1067E0002DE9FF5F82B00021DDE90430020DDDF804
:1067F00040B0034318D044F61050A2F2FF32424397
:106800001514119801281FD0A5EB0B00401C5FEA5E
:10681000000A4FF000064E4FDFF83891B046504660
:1068200015D5CAF1000413E0119801244AA30128E8
:1068300001D16FEA0B010298119AC0E90031C0E959
:10684000024206B0BDE8F09FCBF10000DFE704464E
:106850000021404A491842EB0450CDE9001012E0F3
:10686000E00707D032463B4640464946FCF7ACFDC0
:106870008046894632463B4610461946FCF7A4FD41
:1068800006460F466410002CEAD1DDE90401DDE97B
:106890000023BAF1000F06DAFCF796FD42464B469C
:1068A000FCF792FD05E0FCF701FE42464B46FCF783
:1068B000FDFD04460E460022284BFCF77FFE03D860
:1068C0004FF0FF30014607E00022254B20463146BD
:1068D000FCF7D3FCFCF759FE102409E0002C0ADB7E
:1068E0000A220023FCF798FC039B30321A55641EE1
:1068F00050EA0102F2D1641C039AC4F1110314445A
:10690000119A012A03D0012208430DD10AE008435D
:1069100004D000204FF0110B119072E7A3EB0B0590
:106920006D1E0DE05B4504DD4FF0000205F1010531
:1069300004E003DA4FF00002A5F10105002AECD0D3
:1069400002981199C0E90231C0E9004579E70000D9
:10695000000014400000F03F300000000000F04351
:106960000000E03F2DE9FF4F95B09B468946064663
:1069700000250FE2252877D100242746F84A012177
:10698000059400E0044316F8013F203B01FA03F0B0
:106990001042F7D130782A2811D06FF02F033078C9
:1069A000A0F13002092A16D8059A44F0020402EB3D
:1069B000820203EB42021044761C0590EFE759F87F
:1069C000042B0592002A03DA504244F40054059047
:1069D00044F00204761C30782E2816D116F8010FE8
:1069E00044F004042A280DD06FF02F023078A0F173
:1069F0003003092B09D807EB870302EB4303C718C1
:106A0000761CF3E759F8047B761C30786C280FD09D
:106A100006DC4C2817D068280DD06A2814D104E071
:106A2000742810D07A280FD10DE044F400140AE045
:106A300044F4801401E044F440147278824202D19C
:106A400004F58014761C761C307866280BD013DC95
:106A5000582877D009DC002875D04528F6D046287C
:106A6000F4D047281AD19DE118E0632835D0642876
:106A700079D0652812D195E1702873D008DC672899
:106A8000F1D069286FD06E280DD06F2806D1B5E0FF
:106A900073282CD0752875D0782874D05A46179949
:106AA00090476D1C75E1C4F30250022809D00328F9
:106AB0000DD0D9F8001004280DD00D6009F104099B
:106AC00067E1D9F80010EA17C1E90052F6E7D9F8F2
:106AD00000100D80F2E70D70F0E719F8041B8DF837
:106AE000001000208DF80100EA46012003E059F86B
:106AF00004AB4FF0FF3061074FF0000102D40DE00E
:106B000008F101018846B9420FDA8045F8DB1AF82E
:106B100008100029F4D108E008F1010188468142FB
:106B2000FADB1AF808100029F6D105985B46A0EBAD
:106B3000080721463846179A00F094FA284400EBDB
:106B4000080507E04DE029E10DE01AF8010B5A466F
:106B500017999047B8F10108F7D25B4621463846AD
:106B6000179A13E142E00A220092C4F302524FF056
:106B7000000A022A08D059F804CB032A4FEAEC7124
:106B80000AD00DE029E02AE009F1070121F007020F
:106B9000F2E802C1914609E00FFA8CFC4FEAEC7171
:106BA000042A03D14FFA8CFC4FEAEC71002907DA72
:106BB0000A460021DCF1000C61EB02012D2202E00B
:106BC000220504D52B228DF80420012203E0E207E0
:106BD00001D02022F7E7904659E00A2102E0102276
:106BE0000DE010214FF0000A00910BE010224FF051
:106BF000000A44F004040827009203E008224FF042
:106C0000000A0092C4F30252022A05D059F804CBBC
:106C10000021032A08D009E009F1070121F0070249
:106C2000F2E802C1914605E01FFA8CFC042A01D16A
:106C30000CF0FF0C4FF00008220728D5702806D072
:106C4000009B83F0100353EA0A0305D00EE04022B4
:106C50008DF80420012208E05CEA010206D030220F
:106C60008DF804208DF8050002229046009B83F0E9
:106C7000080353EA0A030AD15CEA010201D1620760
:106C800005D530228DF804204FF001087F1E5828CA
:106C900004D034A003900EA802900DE036A0F9E7CE
:106CA00053466046009AFCF7B7FA84460398825C24
:106CB0000298401E029002705CEA0100F0D1029836
:106CC00006A9081A00F1200A600702D524F48034CE
:106CD00000E00127574502DDA7EB0A0000E0002095
:106CE00000EB0A01009005984144401A0590E0032A
:106CF00006D45B462146179A059800F0B3F905447F
:106D0000002706E001A85A46C05D179990476D1C00
:106D10007F1C4745F6DBE0030CD55B462146179AFE
:106D2000059800F09FF9054404E030205A46179971
:106D300090476D1C0099481E00900029F5DC08E082
:106D4000029802995A460078491C02911799904777
:106D50006D1CBAF10001AAF1010AF1DC65E1000045
:106D60000928010030313233343536373839616221
:106D700063646566000000003031323334353637E5
:106D800038394142434445460000000000F058F9BC
:106D90000544761C307800287FF4ECAD19B0284605
:106DA000BDE8F08F620700D4062709F1070222F040
:106DB000070CFCE80223E14603F000485FEA080CF8
:106DC00002D00FF2702C0DE05FEA045C02D50FF2E6
:106DD000682C07E05FEAC47C02D00FF2602C01E06F
:106DE000AFF2700C4FF0FF3823F00043CDF850C0E5
:106DF00065280CD006DC452809D046281DD0472838
:106E00003DD13DE0662818D067287ED138E00021CA
:106E1000112F01DB112000E0781CCDE9000106A94B
:106E20000EA8FFF7DDFCDDE90F010E9A03910021AA
:106E3000009207F1010A04914DE04FF000400097E5
:106E4000CDE9011006A90EA8FFF7CAFCDDE90F0283
:106E500003920E9B11990022DDF80CA0009304927E
:106E600011B9791C00EB010AB7EB0A0004D4C0F198
:106E7000FF3007F1010A0490AAEB0700019044E0FB
:106E8000012F00DA01270021112F01DD112000E080
:106E90003846CDE9000106A90EA8FFF7A1FCDDE9FF
:106EA0000F010E9A0391002104910092BA46210726
:106EB0000CD40399514500DA8A46BAF1010F05DD79
:106EC000009AAAF10101515C302908D0B84202DAD7
:106ED00010F1040F06DA0121CDE9011015E0AAF145
:106EE0000101E9E7002805DC049901440491AAEBBB
:106EF000000102E0411C514500DD8A460499401A18
:106F0000401C01904FF000400290200704D40198EB
:106F1000504501DBCDF8048000208DF84F00029829
:106F20000DF14F07B0F1004F25D02B200E900298A5
:106F30004FF0020800280CDA404202902D200E90FB
:106F400007E00A210298FCF751F93031029007F866
:106F5000011DB8F10001A8F10108F2DC0298002837
:106F6000EFD1791E0E980870307800F0200040F0C4
:106F7000450007F8020D12A8C01B00F1070814987D
:106F8000007800B1012000EB0A01019801EBE071EB
:106F900005984144401A401E0590E00306D45B4624
:106FA0002146179A059800F05DF80544149800787A
:106FB00018B15A46179990476D1CE00324D55B46DB
:106FC0002146179A059800F04DF805441CE00498F6
:106FD000002807DBDDE90301884203DD0098405CFF
:106FE000179901E0179930205A469047049805F107
:106FF0000105401C04900198401E019004D12E20F0
:107000005A46179990476D1CBAF10001AAF1010A7E
:10701000DDDC05E017F8010B5A46179990476D1C07
:10702000B8F10001A8F10108F4DC5B462146179A8B
:107030000598ABE62D0000002B00000020000000AA
:107040002DE9F041044600251E461746880404D465
:1070500005E039462020B0476D1C641EF9D528464E
:10706000BDE8F0812DE9F041044600251E4690461A
:10707000C80301D5302700E02027880404D505E0A7
:1070800041463846B0476D1C641EF9D52846BDE818
:10709000F0814A68002A06D00A68531C0B60107001
:1070A0004868401E486070470A68531C0B601070A7
:1070B000704738B504468DF8000069460320ABBE22
:1070C000204638BD0000000000000000010203045B
:1070D0000607080900000000010203044572726FF0
:1070E000723A25732C25640D0A002E2E2F467265E8
:1070F0006552544F532F7461736B732E63002E2EA1
:107100002F4672656552544F532F706F72746162CF
:107110006C652F706F72742E630025732066756C1A
:107120006C206174202573202575002E2E2F4C694C
:10713000622F7072696E742E630000006071000827
:107140000000002018000000C067000878710008E7
:1071500018000020F8100000D067000800000000B0
:10716000000000000024F400FFFF00000100000008
:0871700010000000AAAAAAAA5F
:04000005080031318D
:00000001FF
