:020000040800F2
:10000000C0050020450100086D0F0008ED0D000837
:10001000510F0008D1010008DD11000800000000A8
:10002000000000000000000000000000D70F0008E2
:10003000DD01000800000000D50F0008D90F0008FE
:100040005F0100085F0100085F0100085F01000810
:100050005F0100085F0100085F0100085F01000800
:100060005F0100085F0100085F0100085F010008F0
:100070005F0100085F0100085F0100085F010008E0
:100080005F0100085F0100085F0100085F010008D0
:100090005F0100085F0100085F0100085F010008C0
:1000A0005F0100085F0100085F0100085F010008B0
:1000B0005F0100085F0100085F0100085F010008A0
:1000C0005F0100085F0100085F0100085F01000890
:1000D0005F010008D9110008DB1100085F0100086A
:1000E0005F0100085F0100085F0100085F01000870
:1000F0005F0100085F0100085F0100085F01000860
:100100005F0100085F0100085F0100085F0100084F
:100110005F0100085F010008791000085F01000816
:100120005F0100085F0100085F0100085F0100082F
:10013000DFF80CD000F03AF8004800470D13000833
:10014000C00500200648804706480047FEE7FEE756
:10015000FEE7FEE7FEE7FEE7FEE7FEE7FEE7FEE777
:100160002D10000831010008202A04DB203A21FA72
:1001700002F00021704721FA02F3D040C2F12002C0
:100180009140084319467047D2B201E000F8012BB4
:10019000491EFBD270470022F6E710B513460A4607
:1001A00004461946FFF7F0FF204610BD064C074DE8
:1001B00006E0E06840F0010394E807009847103437
:1001C000AC42F6D3FFF7B8FF241500084415000829
:1001D000014801F07DF9FEE70C15000870470000AA
:1001E00054490022CA6154490A6842F002020A6076
:1001F0004860086840F04000086070472548016882
:10020000C90601D4002105E04A49CA6942F0020248
:10021000CA6110210268520706D5464A41F004011E
:10022000D36943F00103D3610269D20708D0414A80
:10023000D36943F00403D361026922F00102026131
:1002400001607047F8B5134E044600F0C9F9054641
:10025000671C3068C00709D0002FFAD024B100F025
:10026000BFF9401BA042F4D90320F8BD30688006D6
:1002700044BF202030603068C00607D43069C00712
:1002800004D1306840075CBF0020F8BDFFF7B6FF1F
:100290000120F8BD0C2002402748016841F0800190
:1002A00001600020704700BF2DE9F84FDFF884801F
:1002B000814698F81800012804BF0220BDE8F88F95
:1002C00001209A4693460E4688F818004CF25030AA
:1002D000FFF7B8FF48BB4F46174CB9F1020F4FF07C
:1002E000000518BF0427B9F1010F08BF4F465FFA98
:1002F00085F900204F4518D9C8F81C004FEA0912AB
:100300005146206840F0010020605846FFF72CFF5E
:1003100026F819004CF25030FFF794FF21680135A0
:10032000002821F001012160E1D0002188F8181097
:10033000BDE8F88F90000020102002400648C168F8
:1003400009065CBF00207047044901600449016050
:10035000C068C0F3C0107047042002402301674505
:10036000AB89EFCD2DE9F04F8F4A4FF006094FF0E2
:10037000000A4FF0010E4FF00F08002590428B4A03
:1003800008BF4FF0050902444FEAB223052B38BFDE
:100390004FEAB229864A944631FA05F208BFBDE811
:1003A000F08F0EFA05F212EA01063ED052460746D9
:1003B000B6F5807F28BF203A28BF04373B6808FA8B
:1003C00002F4A343042404FA02F2ACF57E741A4347
:1003D0000AF00C033A60AF0808FA03FB09FA03F3CA
:1003E000C268B243C260624654F8272002EA0B0298
:1003F0009A421AD154F82730F24323EA0B0344F807
:1004000027306446DCF800306A4C1340CCF80030EA
:10041000DCF804301340CCF80430DCF8083013402A
:10042000CCF8083023681A4022600AF1040A01352A
:10043000B2E700BF2DE9FC4F81465B4806235C4EC6
:100440004FF0000B4FF001084FF00F0E4FF0000A75
:100450008145564808BF052348444FEAB022052A83
:100460004FF0000238BF4FEAB0230093102A08BFB4
:10047000BDE8FC8F0C6808FA02F52C4200F08F8072
:100480004F68032F16D9112F26D0122F28D04A4893
:10049000874213D04948874210D0494887420DD03F
:1004A000484887420AD04848874207D04748874291
:1004B00004D022E0DFE807F002181B1F8C6844B16B
:1004C000012C14BFC9F81450C9F810504FF0080A95
:1004D00013E04FF0040A10E0CC6804F1040A0CE0C9
:1004E000CC6804F10C0A08E0D1F80CA005E0CC6857
:1004F00004F1080A01E04FF0000A5C464846082A69
:10050000334628BF203C28BF043006680EFA04F7A3
:100510000AFA04F4BE4334430460C879C00601D427
:100520001E463CE05B4C22F003061E44206840F06F
:1005300001002060206800F0010001900BF00C0029
:10054000019F0EFA00F4224FBC46F75927EA040433
:10055000009F07FA00F0204346F80C001E464F6843
:10056000F803186854BF20EA050440EA05041C603B
:10057000104BB803706854BF20EA050440EA050434
:100580007460F802B06854BF20EA050440EA05042C
:10059000B460B802186854BFA843284318600BF130
:1005A000040B013262E700BF001C014000F8FEBFEF
:1005B000000401400C040140000011100000121062
:1005C0000000211000002210000031100000321045
:1005D00008FCFFFF002A08BF090401617047000002
:1005E00005480068704700BF1A48034900780A6848
:1005F00010440860704700BFB801002080B59D48D6
:10060000016841F010010160032000F07BF8002038
:1006100000F004F800F020F8002080BD70B50D4E09
:1006200004464FF47A713078B1FBF0F0A0490968C4
:10063000B1FBF0F000F000FB01250F2C08D838B911
:100640004FF0FF3021460022002500F03FF8746093
:10065000284670BD04000020E0B50E48016841F056
:1006600001010160016801F00101019101994168F6
:1006700041F080514160406800F080500090009847
:10068000052000F03FF804480222016862F31A6175
:1006900001608CBD181002400400014000F01F01F1
:1006A0000122400902FA01F1014A42F82010704784
:1006B00080E100E000F01F010122400902FA01F18F
:1006C000014A42F82010704700E100E070B5134B7A
:1006D0004FF0FF351B68C3F30223DC1E83F00703D2
:1006E00038BF0024042B28BF042305FA04F605FABA
:1006F00003F3B2439943A1401143BDE8704000F0B9
:1007000045BC00BF05494FF6FF030A681A4060F375
:100710000A22034810430860704700BF0CED00E058
:100720000000FA05704700002DE9F8430D465149D5
:100730000446086800F00700A84209D2086820F0C3
:10074000070028430860086800F00700A84253D15A
:100750002068664F8946810711D5410703D539685E
:1007600041F4E0613960010703D5396841F4605113
:100770003960A1683A6822F0F00211433960C0077D
:1007800033D1D9F8000000F00700A8420CD9D9F8FD
:10079000000020F007002843C9F80000D9F8000045
:1007A00000F00700A84227D12068410705D5E1687D
:1007B0003A6822F4E06211433960000706D52069E7
:1007C000396821F4605141EAC000386000F074F8E3
:1007D0003968294A0024C1F30311515CC8403449E7
:1007E00008600020FFF71AFF07E06068012807D1C2
:1007F00057F8041C89030CD401242046BDE8F88373
:1008000057F8041C022802D18901F5D501E08907B7
:10081000F2D5396821F0030108433860FFF7E0FEA4
:100820000646606841F2883801280CD002281BD1A6
:10083000386800F00C000828A3D0FFF7D1FE801B19
:100840004045F5D909E0386800F00C00042898D03C
:10085000FFF7C6FE801B4045F5D90324CDE7FFF71F
:10086000BFFE801B4045F8D8386810F00C0FF6D159
:1008700087E700BF00200240F4140008014801216E
:10088000016070474C004242E9481849094A006833
:100890000968C1F30221515CC8407047E44813491C
:1008A000044A00680968C1F3C221515CC84070471E
:1008B0000C0000200415000810B50C490C480A680B
:1008C00002F00C03082B07D1C2F3834309A4D2031F
:1008D000E35C02D40C48584310BD096809A2584390
:1008E000C1F34041515CB0FBF1F010BD0410024077
:1008F00000127A0002030405060708090A0B0C0D12
:100900000E0F10100102000000093D0010B5044C4C
:100910002068000603D5FFF705FF8020A07010BDFA
:10092000081002402DE9FC4104460078BE4EC00785
:1009300025D0706800F00C0004281AD0706800F010
:100940000C00082802D17068C00312D46068002827
:1009500000F0FD80B0F5803F07D03168B0F5A02FE2
:1009600040F0288141F480203060306840F48030CD
:1009700026E13068800302D5606800286CD02078BA
:10098000800718D5706810F00C0F07D0706800F061
:100990000C00082824D17068C00321D43068800777
:1009A00002D52069012857D16069316821F0F8012A
:1009B00041EAC00030602078000741D5A06910B33B
:1009C0009A480121C0F88014FFF70AFE0546706AB4
:1009D000800728D4FFF704FE401B0228F7D9FCE06B
:1009E00021699248002900F08D8001210160FFF704
:1009F000F7FD054630688007D6D4FFF7F1FD401BB0
:100A00000228F7D9E9E089480021C0F88014FFF7EF
:100A1000E7FD0546706A800712D5FFF7E1FD401B30
:100A20000228F7D9D9E082484FF4FA510068B0FBA8
:100A3000F1F0019000BF0198411E00280191F9D109
:100A4000207840070BD4E769002F00F0EA80706837
:100A500000F00C00082835D10120BDE8FC81F069C8
:100A6000C0000BD4F0694FF0010840F08050F061F5
:100A7000F06900F080500090009801E04FF000080D
:100A80006C4F3868C0050FD4386840F48070386007
:100A9000FFF7A6FD05463868C00505D4FFF7A0FDA1
:100AA000401B6428F7D998E0E068D0B3012805D04E
:100AB000316A052860D141F004003062306A40F0AC
:100AC00001005FE05949002088460866FFF788FD6D
:100AD0000546022F0BD147463068800140F18080E7
:100AE000FFF77EFD411B03200229F5D997E030680E
:100AF000800140F19680FFF773FD411B032003291D
:100B0000F5D38CE000210160FFF76AFD05463068EF
:100B100080077FF550AFFFF763FD401B0228F6D931
:100B20005BE0306A20F001003062306A20F004009F
:100B30003062FFF755FD054641F28837306A80077D
:100B40002FD5FFF74DFD401BB842F7D945E030687F
:100B500020F480303060306820F480203060FFF76F
:100B60003FFD0546306880037FF509AFFFF738FD8C
:100B7000401B6428F6D930E021F001003062306A71
:100B800020F004003062FFF72BFD054641F2883764
:100B9000306A800705D4FFF723FD401BB842F7D920
:100BA0001BE0B8F1000F3FF44EAFF06920F0805029
:100BB000F06148E721F480303060306820F4802014
:100BC0003060FFF70DFD0546306880033FF5D7AE76
:100BD000FFF706FD401B6428F6D90320BDE8FC8121
:100BE000206AB0F5803F05D1A168726822F4003216
:100BF00011437160616A0843716821F474110843FC
:100C0000706001203866FFF7EBFC04463068800115
:100C100007D4FFF7E5FC011B03200229F6D9BDE844
:100C2000FC810020BDE8FC8100100240000042422F
:100C30000C00002000700040411E0020B0EB116F3E
:100C40001CBF01207047044AF023516003490B7018
:100C5000072190601160704710E000E023ED00E094
:100C600080B110B50446242084F83900204600F0F5
:100C700039F80020E06384F8390084F8380084F8FB
:100C80003A0010BD0120704750B310B5044690F8EB
:100C9000390028B9002084F83800204600F044F8D4
:100CA000242084F839002068C16821F40051C16013
:100CB000204600F0EDF92068016921F490410161BE
:100CC000416921F02A014161C16841F40051C160CC
:100CD00000202021E06384F8391084F83A1010BD18
:100CE0000120704710B50068984988420CD08949A6
:100CF000884218BF10BD7A482524016821F480413C
:100D000001604FF4C06106E075482624416821F473
:100D1000003141600C217348FFF724FB2046BDE8F9
:100D20001040FFF7BBBC00BFB0B586B000216D4CD2
:100D3000CDE90411CDE9021184490068884224D02C
:100D40007449884250D16648016841F4804101608D
:100D5000016801F4804101910199016841F00401A9
:100D6000016002A9006800F00400019003200590D2
:100D7000022003904FF40070029001982046FFF784
:100D800059FB4FF4806025251EE05548416841F429
:100D900000314160416801F400310191019901681D
:100DA00041F00401016002A9006800F00400019014
:100DB0000320059002200390042002900198204611
:100DC000FFF738FB082026250290002002A9CDE974
:100DD00003002046FFF72EFB284600210022FFF7E4
:100DE00075FC2846FFF766FC06B0B0BD01A000F018
:100DF0006FFBFEE7486172644661756C745F486121
:100E00006E646C65720D00002DE9F04F85B04FF0F7
:100E100000093348334C00224FF02008CDF81090E1
:100E2000016804F5805741F040010160016801F05C
:100E3000400100910099016841F0100101600168D2
:100E400001F0100100910099016841F00401016076
:100E5000016801F0040100910099016841F0080166
:100E600001602021006800F00800009000983846DA
:100E7000FFF7B0FB04F580644FF490710022204628
:100E8000FFF7A8FB0DF1040B1C20DFF85CA0CDE9F7
:100E90000299019038465946D04702250126384626
:100EA0005946CDE90355CDE90186D0470D4859464D
:100EB000CDF80C90CDE90169D04720465946CDE9DF
:100EC0000355CDE90186D0474FF480700495CDE9F4
:100ED0000269594601902046D04705B0BDE8F08F21
:100EE00018100240000801403504000810B5D5482C
:100EF000B64C4FF4E13300210C22C0E90043C0E9B5
:100F00000211C0E90412C0E90611BDE81040FFF764
:100F1000BBBE00BF0038014010B50B4C0B4B4FF46B
:100F2000E13200200C21C4E90032C4E90200C4E926
:100F30000401C4E906002046FFF7A6FE2068C16848
:100F400041F02001C16010BD50000020004400406D
:100F500001A000F0BDFAFEE74D656D4D616E616761
:100F6000655F48616E646C65720D000080B503A01A
:100F700000F0AEFABDE88040FFF7C8BC4E4D495FB7
:100F800048616E646C65720D0000000010B5064A81
:100F900000F00F030028054C02444FEA011048BF3F
:100FA0001A19107010BD00BF00E400E014ED00E05D
:100FB0000648BFF34F8F064A016801F4E061114310
:100FC0000160BFF34F8F00BFFDE700BF0CED00E0F5
:100FD0000400FA0570477047FFF706BBB0B590B044
:100FE00000244FF4E010022501210B94CDE90944BF
:100FF0000F904FF480300D950C910E90CDE90704C1
:1010000009200A91069006A8FFF78CFC4FF4806037
:101010000221CDE904000F20CDE90254019001A87E
:10102000FFF782FBFFF72AFC10B0B0BD0E480F4A55
:10103000016841F001010160416811400C4A4160C2
:10104000016811400160016821F48021016041685C
:1010500021F4FE0141604FF41F01816005484FF00B
:1010600000610160704700BF001002400000FFF8FF
:10107000FFFFF6FE08ED00E004480168C90703D051
:10108000016821F001010160704700BF10100040AD
:101090002DE9F0470446006804F108030ECB05690A
:1010A00025F4405519432A4341F20C650261C26898
:1010B0006369AA4319431143C1604169A26921F4DC
:1010C0004071114341614149884235D0404EB0479B
:1010D000D4F804808146B0476168192778438900B5
:1010E000B0FBF1F5B0476168784332224FEA8803DC
:1010F0008900B0FBF1F06421B0FBF1F000FB11506E
:1011000002EB001009FB07F2B2FBF3F2B0FBF1F0C7
:10111000B2FBF1F100F0F00000EB0118B04761689C
:1011200078438900B0FBF1F5B047616878438900E6
:10113000B0FBF1F0291A35E0DFF898A0D047D4F8D9
:1011400004808146D0476168192778438900B0FB45
:10115000F1F5D0476168784332224FEA880389006D
:10116000B0FBF1F06421B0FBF1F000FB115002EB99
:10117000001009FB07F2B2FBF3F2B0FBF1F0B2FB97
:10118000F1F100F0F00000EB0118D04761687843FE
:101190008900B0FBF1F6D047616878438900B0FB65
:1011A000F1F0311A6422B0FBF2F303FB12000844A1
:1011B000322101EB00102168B0FBF2F000F00F00CB
:1011C00040EA08008860BDE8F08700BF00380140B1
:1011D000890800089D08000870477047014800F022
:1011E00077F9FEE70C15000810B5FFF707FAFFF7CF
:1011F000F5FEFFF709FEFFF779FEFFF78DFEFFF71B
:101200009DF8A44C4FF48271201DFEF7C4FFA24844
:10121000206010BDF8B50D460446FFF7E1F9544FC4
:101220000646FFF7DDF9801BA84208D2386800683F
:101230008006F6D54D48006820700120F8BD0020DA
:10124000F8BD00BF10000020B0B54FF4FA610446AD
:10125000FFF7E0FF70B100252178E8B20431814248
:101260000AD920444FF4FA610130FFF7D3FF01356A
:101270000028F1D10120B0BD00210022D3B2834269
:1012800003D8E35C01321944F8E7C8B2002818BF5C
:1012900001204000B0BD000010B50F4C0F49206880
:1012A0000840B0F1005F0ED113A000F063F8FEF724
:1012B000F3FF2F48FFF7D4FC6068216881F30888AA
:1012C000BDE81040004706A000F054F8012080F36C
:1012D0001388FFF76DFE00BF003000080000FE2FEE
:1012E00061707020697320656D7074792072656219
:1012F0006F6F7421200D0A006A756D7020746F2065
:101300006170702E2E2E0D0A0000000080B5FFF7D0
:101310006BFF00F039F8012080BDBCB5FFF760F924
:1013200004460DF10705FFF75BF9001B00097C2857
:1013300011D8552000F012F82846C821FFF76AFF9F
:101340000028F0D09DF807004228ECD1522000F090
:1013500005F80120BCBD0020BCBD000003490860A9
:101360000348006801680906FCD57047043801404D
:101370001000002010B50446207818B1FFF7EEFFEA
:101380000134F9E710BD0000FFF7C7FF08B9FFF708
:1013900083FF1A4F1A4D0026BC1D022E07D220468D
:1013A000FFF752FF2846FFF7E5FF0136F5E7012674
:1013B0000FF250082046FFF747FFD0B9787A04288B
:1013C00006D0012809D068B900F01EF8064609E0E9
:1013D000788900BA000CB88004E02846FFF7CAFFFD
:1013E000FFF75AFFF007404618BF2846FFF7C2FF35
:1013F000E0E7012080F31388FFF7DAFDB00000205A
:1014000020150008460A00002DE9F041DFF884802D
:10141000B8F80710B8F80400090409BA41EA004610
:101420001D48864201D2002430E0D8F800001B4C51
:1014300098F806107218904210D2FEF7D1FE4CF2C6
:101440005030FEF7FFFE206820F002002060D8F840
:10145000000000F50060C8F80000E9E708F10A079D
:1014600000200024C5B2C8B285420ED23A88A9191C
:1014700001200023FEF718FF3888A95B884205D1B8
:1014800098F80610A81C0237ECE701242046BDE8B6
:10149000F08100BFB00000200030000810200240A2
:1014A00002E008C8121F08C1002AFAD1704770472D
:1014B000002001E001C1121F002AFBD1704738B59E
:1014C00004468DF8000069460320ABBE204638BDB7
:1014D00010B5044601E0FFF7F2FF14F8010B0449D0
:1014E0000028F8D1BDE810400A20FFF7E8BF00004F
:1014F00000000020000000000000000001020304C2
:101500000607080900000000010203045573616723
:10151000654661756C745F48616E646C65720D0040
:10152000530A0000481500080000002010000000C9
:10153000A01400085815000810000020B005000095
:10154000B0140008000000000000000001000000CE
:081550001000000000A24A0493
:0400000508000131BD
:00000001FF
